{
  "_format": "hh-sol-artifact-1",
  "contractName": "ArtBlockNFT",
  "sourceName": "contracts/NFT.sol",
  "abi": [
    {
      "inputs": [],
      "stateMutability": "nonpayable",
      "type": "constructor"
    },
    {
      "anonymous": false,
      "inputs": [
        {
          "indexed": true,
          "internalType": "address",
          "name": "owner",
          "type": "address"
        },
        {
          "indexed": true,
          "internalType": "address",
          "name": "approved",
          "type": "address"
        },
        {
          "indexed": true,
          "internalType": "uint256",
          "name": "tokenId",
          "type": "uint256"
        }
      ],
      "name": "Approval",
      "type": "event"
    },
    {
      "anonymous": false,
      "inputs": [
        {
          "indexed": true,
          "internalType": "address",
          "name": "owner",
          "type": "address"
        },
        {
          "indexed": true,
          "internalType": "address",
          "name": "operator",
          "type": "address"
        },
        {
          "indexed": false,
          "internalType": "bool",
          "name": "approved",
          "type": "bool"
        }
      ],
      "name": "ApprovalForAll",
      "type": "event"
    },
    {
      "anonymous": false,
      "inputs": [
        {
          "indexed": false,
          "internalType": "uint256",
          "name": "_fromTokenId",
          "type": "uint256"
        },
        {
          "indexed": false,
          "internalType": "uint256",
          "name": "_toTokenId",
          "type": "uint256"
        }
      ],
      "name": "BatchMetadataUpdate",
      "type": "event"
    },
    {
      "anonymous": false,
      "inputs": [
        {
          "indexed": false,
          "internalType": "uint256",
          "name": "_tokenId",
          "type": "uint256"
        }
      ],
      "name": "MetadataUpdate",
      "type": "event"
    },
    {
      "anonymous": false,
      "inputs": [
        {
          "indexed": true,
          "internalType": "address",
          "name": "previousOwner",
          "type": "address"
        },
        {
          "indexed": true,
          "internalType": "address",
          "name": "newOwner",
          "type": "address"
        }
      ],
      "name": "OwnershipTransferred",
      "type": "event"
    },
    {
      "anonymous": false,
      "inputs": [
        {
          "indexed": true,
          "internalType": "address",
          "name": "from",
          "type": "address"
        },
        {
          "indexed": true,
          "internalType": "address",
          "name": "to",
          "type": "address"
        },
        {
          "indexed": true,
          "internalType": "uint256",
          "name": "tokenId",
          "type": "uint256"
        }
      ],
      "name": "Transfer",
      "type": "event"
    },
    {
      "inputs": [
        {
          "internalType": "address",
          "name": "to",
          "type": "address"
        },
        {
          "internalType": "uint256",
          "name": "tokenId",
          "type": "uint256"
        }
      ],
      "name": "approve",
      "outputs": [],
      "stateMutability": "nonpayable",
      "type": "function"
    },
    {
      "inputs": [
        {
          "internalType": "address",
          "name": "owner",
          "type": "address"
        }
      ],
      "name": "balanceOf",
      "outputs": [
        {
          "internalType": "uint256",
          "name": "",
          "type": "uint256"
        }
      ],
      "stateMutability": "view",
      "type": "function"
    },
    {
      "inputs": [
        {
          "internalType": "uint256",
          "name": "tokenId",
          "type": "uint256"
        }
      ],
      "name": "getApproved",
      "outputs": [
        {
          "internalType": "address",
          "name": "",
          "type": "address"
        }
      ],
      "stateMutability": "view",
      "type": "function"
    },
    {
      "inputs": [
        {
          "internalType": "uint256",
          "name": "tokenId",
          "type": "uint256"
        }
      ],
      "name": "getCreator",
      "outputs": [
        {
          "internalType": "address",
          "name": "creator",
          "type": "address"
        }
      ],
      "stateMutability": "view",
      "type": "function"
    },
    {
      "inputs": [
        {
          "internalType": "uint256",
          "name": "tokenId",
          "type": "uint256"
        }
      ],
      "name": "getRoyaltyPercentage",
      "outputs": [
        {
          "internalType": "uint96",
          "name": "percentage",
          "type": "uint96"
        }
      ],
      "stateMutability": "view",
      "type": "function"
    },
    {
      "inputs": [
        {
          "internalType": "address",
          "name": "owner",
          "type": "address"
        },
        {
          "internalType": "address",
          "name": "operator",
          "type": "address"
        }
      ],
      "name": "isApprovedForAll",
      "outputs": [
        {
          "internalType": "bool",
          "name": "",
          "type": "bool"
        }
      ],
      "stateMutability": "view",
      "type": "function"
    },
    {
      "inputs": [
        {
          "internalType": "address",
          "name": "to",
          "type": "address"
        },
        {
          "internalType": "string",
          "name": "uri",
          "type": "string"
        },
        {
          "internalType": "uint96",
          "name": "royaltyPercentage",
          "type": "uint96"
        }
      ],
      "name": "mint",
      "outputs": [
        {
          "internalType": "uint256",
          "name": "",
          "type": "uint256"
        }
      ],
      "stateMutability": "nonpayable",
      "type": "function"
    },
    {
      "inputs": [],
      "name": "name",
      "outputs": [
        {
          "internalType": "string",
          "name": "",
          "type": "string"
        }
      ],
      "stateMutability": "view",
      "type": "function"
    },
    {
      "inputs": [],
      "name": "owner",
      "outputs": [
        {
          "internalType": "address",
          "name": "",
          "type": "address"
        }
      ],
      "stateMutability": "view",
      "type": "function"
    },
    {
      "inputs": [
        {
          "internalType": "uint256",
          "name": "tokenId",
          "type": "uint256"
        }
      ],
      "name": "ownerOf",
      "outputs": [
        {
          "internalType": "address",
          "name": "",
          "type": "address"
        }
      ],
      "stateMutability": "view",
      "type": "function"
    },
    {
      "inputs": [],
      "name": "renounceOwnership",
      "outputs": [],
      "stateMutability": "nonpayable",
      "type": "function"
    },
    {
      "inputs": [
        {
          "internalType": "uint256",
          "name": "tokenId",
          "type": "uint256"
        },
        {
          "internalType": "uint256",
          "name": "salePrice",
          "type": "uint256"
        }
      ],
      "name": "royaltyInfo",
      "outputs": [
        {
          "internalType": "address",
          "name": "receiver",
          "type": "address"
        },
        {
          "internalType": "uint256",
          "name": "royaltyAmount",
          "type": "uint256"
        }
      ],
      "stateMutability": "view",
      "type": "function"
    },
    {
      "inputs": [
        {
          "internalType": "uint256[]",
          "name": "tokenIds",
          "type": "uint256[]"
        },
        {
          "internalType": "uint256[]",
          "name": "salePrices",
          "type": "uint256[]"
        }
      ],
      "name": "royaltyInfoBatch",
      "outputs": [
        {
          "internalType": "address[]",
          "name": "receivers",
          "type": "address[]"
        },
        {
          "internalType": "uint256[]",
          "name": "royaltyAmounts",
          "type": "uint256[]"
        }
      ],
      "stateMutability": "view",
      "type": "function"
    },
    {
      "inputs": [
        {
          "internalType": "address",
          "name": "from",
          "type": "address"
        },
        {
          "internalType": "address",
          "name": "to",
          "type": "address"
        },
        {
          "internalType": "uint256",
          "name": "tokenId",
          "type": "uint256"
        }
      ],
      "name": "safeTransferFrom",
      "outputs": [],
      "stateMutability": "nonpayable",
      "type": "function"
    },
    {
      "inputs": [
        {
          "internalType": "address",
          "name": "from",
          "type": "address"
        },
        {
          "internalType": "address",
          "name": "to",
          "type": "address"
        },
        {
          "internalType": "uint256",
          "name": "tokenId",
          "type": "uint256"
        },
        {
          "internalType": "bytes",
          "name": "data",
          "type": "bytes"
        }
      ],
      "name": "safeTransferFrom",
      "outputs": [],
      "stateMutability": "nonpayable",
      "type": "function"
    },
    {
      "inputs": [
        {
          "internalType": "address",
          "name": "operator",
          "type": "address"
        },
        {
          "internalType": "bool",
          "name": "approved",
          "type": "bool"
        }
      ],
      "name": "setApprovalForAll",
      "outputs": [],
      "stateMutability": "nonpayable",
      "type": "function"
    },
    {
      "inputs": [
        {
          "internalType": "bytes4",
          "name": "interfaceId",
          "type": "bytes4"
        }
      ],
      "name": "supportsInterface",
      "outputs": [
        {
          "internalType": "bool",
          "name": "",
          "type": "bool"
        }
      ],
      "stateMutability": "view",
      "type": "function"
    },
    {
      "inputs": [],
      "name": "symbol",
      "outputs": [
        {
          "internalType": "string",
          "name": "",
          "type": "string"
        }
      ],
      "stateMutability": "view",
      "type": "function"
    },
    {
      "inputs": [
        {
          "internalType": "uint256",
          "name": "tokenId",
          "type": "uint256"
        }
      ],
      "name": "tokenURI",
      "outputs": [
        {
          "internalType": "string",
          "name": "",
          "type": "string"
        }
      ],
      "stateMutability": "view",
      "type": "function"
    },
    {
      "inputs": [
        {
          "internalType": "address",
          "name": "from",
          "type": "address"
        },
        {
          "internalType": "address",
          "name": "to",
          "type": "address"
        },
        {
          "internalType": "uint256",
          "name": "tokenId",
          "type": "uint256"
        }
      ],
      "name": "transferFrom",
      "outputs": [],
      "stateMutability": "nonpayable",
      "type": "function"
    },
    {
      "inputs": [
        {
          "internalType": "address",
          "name": "newOwner",
          "type": "address"
        }
      ],
      "name": "transferOwnership",
      "outputs": [],
      "stateMutability": "nonpayable",
      "type": "function"
    },
    {
      "inputs": [
        {
          "internalType": "uint256",
          "name": "tokenId",
          "type": "uint256"
        },
        {
          "internalType": "uint96",
          "name": "newRoyaltyPercentage",
          "type": "uint96"
        }
      ],
      "name": "updateRoyaltyInfo",
      "outputs": [],
      "stateMutability": "nonpayable",
      "type": "function"
    }
  ],
  "bytecode": "0x60806040523480156200001157600080fd5b506040518060400160405280600b81526020017f417274426c6f636b4e46540000000000000000000000000000000000000000008152506040518060400160405280600581526020017f41424e4654000000000000000000000000000000000000000000000000000000815250816000908051906020019062000096929190620001a6565b508060019080519060200190620000af929190620001a6565b505050620000d2620000c6620000d860201b60201c565b620000e060201b60201c565b620002bb565b600033905090565b6000600760009054906101000a900473ffffffffffffffffffffffffffffffffffffffff16905081600760006101000a81548173ffffffffffffffffffffffffffffffffffffffff021916908373ffffffffffffffffffffffffffffffffffffffff1602179055508173ffffffffffffffffffffffffffffffffffffffff168173ffffffffffffffffffffffffffffffffffffffff167f8be0079c531659141344cd1fd0a4f28419497f9722a3daafe3b4186f6b6457e060405160405180910390a35050565b828054620001b49062000285565b90600052602060002090601f016020900481019282620001d8576000855562000224565b82601f10620001f357805160ff191683800117855562000224565b8280016001018555821562000224579182015b828111156200022357825182559160200191906001019062000206565b5b50905062000233919062000237565b5090565b5b808211156200025257600081600090555060010162000238565b5090565b7f4e487b7100000000000000000000000000000000000000000000000000000000600052602260045260246000fd5b600060028204905060018216806200029e57607f821691505b60208210811415620002b557620002b462000256565b5b50919050565b6139f980620002cb6000396000f3fe608060405234801561001057600080fd5b50600436106101425760003560e01c806376a17510116100b8578063b88d4fde1161007c578063b88d4fde1461039d578063c87b56dd146103b9578063ca803e7c146103e9578063d48e638a14610405578063e985e9c514610435578063f2fde38b1461046557610142565b806376a17510146102e55780637b17b7a8146103155780638da5cb5b1461034557806395d89b4114610363578063a22cb4651461038157610142565b80632a55205a1161010a5780632a55205a146101fd57806342842e0e1461022e578063445c4f021461024a5780636352211e1461027b57806370a08231146102ab578063715018a6146102db57610142565b806301ffc9a71461014757806306fdde0314610177578063081812fc14610195578063095ea7b3146101c557806323b872dd146101e1575b600080fd5b610161600480360381019061015c9190612411565b610481565b60405161016e9190612459565b60405180910390f35b61017f610493565b60405161018c919061250d565b60405180910390f35b6101af60048036038101906101aa9190612565565b610525565b6040516101bc91906125d3565b60405180910390f35b6101df60048036038101906101da919061261a565b61056b565b005b6101fb60048036038101906101f6919061265a565b610683565b005b610217600480360381019061021291906126ad565b6106e3565b6040516102259291906126fc565b60405180910390f35b6102486004803603810190610243919061265a565b6107d8565b005b610264600480360381019061025f919061286d565b6107f8565b604051610272929190612a61565b60405180910390f35b61029560048036038101906102909190612565565b610a85565b6040516102a291906125d3565b60405180910390f35b6102c560048036038101906102c09190612a98565b610b0c565b6040516102d29190612ac5565b60405180910390f35b6102e3610bc4565b005b6102ff60048036038101906102fa9190612565565b610bd8565b60405161030c9190612b07565b60405180910390f35b61032f600480360381019061032a9190612c03565b610c10565b60405161033c9190612ac5565b60405180910390f35b61034d610d1e565b60405161035a91906125d3565b60405180910390f35b61036b610d48565b604051610378919061250d565b60405180910390f35b61039b60048036038101906103969190612c9e565b610dda565b005b6103b760048036038101906103b29190612d7f565b610df0565b005b6103d360048036038101906103ce9190612565565b610e52565b6040516103e0919061250d565b60405180910390f35b61040360048036038101906103fe9190612e02565b610e64565b005b61041f600480360381019061041a9190612565565b610efd565b60405161042c91906125d3565b60405180910390f35b61044f600480360381019061044a9190612e42565b610f3d565b60405161045c9190612459565b60405180910390f35b61047f600480360381019061047a9190612a98565b610fd1565b005b600061048c82611055565b9050919050565b6060600080546104a290612eb1565b80601f01602080910402602001604051908101604052809291908181526020018280546104ce90612eb1565b801561051b5780601f106104f05761010080835404028352916020019161051b565b820191906000526020600020905b8154815290600101906020018083116104fe57829003601f168201915b5050505050905090565b6000610530826110b6565b6004600083815260200190815260200160002060009054906101000a900473ffffffffffffffffffffffffffffffffffffffff169050919050565b600061057682610a85565b90508073ffffffffffffffffffffffffffffffffffffffff168373ffffffffffffffffffffffffffffffffffffffff1614156105e7576040517f08c379a00000000000000000000000000000000000000000000000000000000081526004016105de90612f55565b60405180910390fd5b8073ffffffffffffffffffffffffffffffffffffffff16610606611101565b73ffffffffffffffffffffffffffffffffffffffff16148061063557506106348161062f611101565b610f3d565b5b610674576040517f08c379a000000000000000000000000000000000000000000000000000000000815260040161066b90612fe7565b60405180910390fd5b61067e8383611109565b505050565b61069461068e611101565b826111c2565b6106d3576040517f08c379a00000000000000000000000000000000000000000000000000000000081526004016106ca90613079565b60405180910390fd5b6106de838383611257565b505050565b6000806000600960008681526020019081526020016000206040518060400160405290816000820160009054906101000a900473ffffffffffffffffffffffffffffffffffffffff1673ffffffffffffffffffffffffffffffffffffffff1673ffffffffffffffffffffffffffffffffffffffff1681526020016000820160149054906101000a90046bffffffffffffffffffffffff166bffffffffffffffffffffffff166bffffffffffffffffffffffff168152505090508060000151925061271081602001516bffffffffffffffffffffffff16856107c491906130c8565b6107ce9190613151565b9150509250929050565b6107f383838360405180602001604052806000815250610df0565b505050565b606080825184511461083f576040517f08c379a0000000000000000000000000000000000000000000000000000000008152600401610836906131f4565b60405180910390fd5b835167ffffffffffffffff81111561085a5761085961272a565b5b6040519080825280602002602001820160405280156108885781602001602082028036833780820191505090505b509150835167ffffffffffffffff8111156108a6576108a561272a565b5b6040519080825280602002602001820160405280156108d45781602001602082028036833780820191505090505b50905060005b8451811015610a7d576000600960008784815181106108fc576108fb613214565b5b602002602001015181526020019081526020016000206040518060400160405290816000820160009054906101000a900473ffffffffffffffffffffffffffffffffffffffff1673ffffffffffffffffffffffffffffffffffffffff1673ffffffffffffffffffffffffffffffffffffffff1681526020016000820160149054906101000a90046bffffffffffffffffffffffff166bffffffffffffffffffffffff166bffffffffffffffffffffffff1681525050905080600001518483815181106109cb576109ca613214565b5b602002602001019073ffffffffffffffffffffffffffffffffffffffff16908173ffffffffffffffffffffffffffffffffffffffff168152505061271081602001516bffffffffffffffffffffffff16868481518110610a2e57610a2d613214565b5b6020026020010151610a4091906130c8565b610a4a9190613151565b838381518110610a5d57610a5c613214565b5b602002602001018181525050508080610a7590613243565b9150506108da565b509250929050565b600080610a9183611551565b9050600073ffffffffffffffffffffffffffffffffffffffff168173ffffffffffffffffffffffffffffffffffffffff161415610b03576040517f08c379a0000000000000000000000000000000000000000000000000000000008152600401610afa906132d8565b60405180910390fd5b80915050919050565b60008073ffffffffffffffffffffffffffffffffffffffff168273ffffffffffffffffffffffffffffffffffffffff161415610b7d576040517f08c379a0000000000000000000000000000000000000000000000000000000008152600401610b749061336a565b60405180910390fd5b600360008373ffffffffffffffffffffffffffffffffffffffff1673ffffffffffffffffffffffffffffffffffffffff168152602001908152602001600020549050919050565b610bcc61158e565b610bd6600061160c565b565b60006009600083815260200190815260200160002060000160149054906101000a90046bffffffffffffffffffffffff169050919050565b6000610c1a61158e565b6000610c2660086116d2565b9050610c3260086116e0565b610c3c85826116f6565b610c468185611714565b60405180604001604052808673ffffffffffffffffffffffffffffffffffffffff168152602001846bffffffffffffffffffffffff168152506009600083815260200190815260200160002060008201518160000160006101000a81548173ffffffffffffffffffffffffffffffffffffffff021916908373ffffffffffffffffffffffffffffffffffffffff16021790555060208201518160000160146101000a8154816bffffffffffffffffffffffff02191690836bffffffffffffffffffffffff160217905550905050809150509392505050565b6000600760009054906101000a900473ffffffffffffffffffffffffffffffffffffffff16905090565b606060018054610d5790612eb1565b80601f0160208091040260200160405190810160405280929190818152602001828054610d8390612eb1565b8015610dd05780601f10610da557610100808354040283529160200191610dd0565b820191906000526020600020905b815481529060010190602001808311610db357829003601f168201915b5050505050905090565b610dec610de5611101565b83836117bf565b5050565b610e01610dfb611101565b836111c2565b610e40576040517f08c379a0000000000000000000000000000000000000000000000000000000008152600401610e3790613079565b60405180910390fd5b610e4c8484848461192c565b50505050565b6060610e5d82611988565b9050919050565b610e75610e6f611101565b836111c2565b610eb4576040517f08c379a0000000000000000000000000000000000000000000000000000000008152600401610eab906133d6565b60405180910390fd5b806009600084815260200190815260200160002060000160146101000a8154816bffffffffffffffffffffffff02191690836bffffffffffffffffffffffff1602179055505050565b60006009600083815260200190815260200160002060000160009054906101000a900473ffffffffffffffffffffffffffffffffffffffff169050919050565b6000600560008473ffffffffffffffffffffffffffffffffffffffff1673ffffffffffffffffffffffffffffffffffffffff16815260200190815260200160002060008373ffffffffffffffffffffffffffffffffffffffff1673ffffffffffffffffffffffffffffffffffffffff16815260200190815260200160002060009054906101000a900460ff16905092915050565b610fd961158e565b600073ffffffffffffffffffffffffffffffffffffffff168173ffffffffffffffffffffffffffffffffffffffff161415611049576040517f08c379a000000000000000000000000000000000000000000000000000000000815260040161104090613468565b60405180910390fd5b6110528161160c565b50565b6000634906490660e01b7bffffffffffffffffffffffffffffffffffffffffffffffffffffffff1916827bffffffffffffffffffffffffffffffffffffffffffffffffffffffff191614806110af57506110ae82611a9b565b5b9050919050565b6110bf81611b7d565b6110fe576040517f08c379a00000000000000000000000000000000000000000000000000000000081526004016110f5906132d8565b60405180910390fd5b50565b600033905090565b816004600083815260200190815260200160002060006101000a81548173ffffffffffffffffffffffffffffffffffffffff021916908373ffffffffffffffffffffffffffffffffffffffff160217905550808273ffffffffffffffffffffffffffffffffffffffff1661117c83610a85565b73ffffffffffffffffffffffffffffffffffffffff167f8c5be1e5ebec7d5bd14f71427d1e84f3dd0314c0f7b2291e5b200ac8c7c3b92560405160405180910390a45050565b6000806111ce83610a85565b90508073ffffffffffffffffffffffffffffffffffffffff168473ffffffffffffffffffffffffffffffffffffffff161480611210575061120f8185610f3d565b5b8061124e57508373ffffffffffffffffffffffffffffffffffffffff1661123684610525565b73ffffffffffffffffffffffffffffffffffffffff16145b91505092915050565b8273ffffffffffffffffffffffffffffffffffffffff1661127782610a85565b73ffffffffffffffffffffffffffffffffffffffff16146112cd576040517f08c379a00000000000000000000000000000000000000000000000000000000081526004016112c4906134fa565b60405180910390fd5b600073ffffffffffffffffffffffffffffffffffffffff168273ffffffffffffffffffffffffffffffffffffffff16141561133d576040517f08c379a00000000000000000000000000000000000000000000000000000000081526004016113349061358c565b60405180910390fd5b61134a8383836001611bbe565b8273ffffffffffffffffffffffffffffffffffffffff1661136a82610a85565b73ffffffffffffffffffffffffffffffffffffffff16146113c0576040517f08c379a00000000000000000000000000000000000000000000000000000000081526004016113b7906134fa565b60405180910390fd5b6004600082815260200190815260200160002060006101000a81549073ffffffffffffffffffffffffffffffffffffffff02191690556001600360008573ffffffffffffffffffffffffffffffffffffffff1673ffffffffffffffffffffffffffffffffffffffff168152602001908152602001600020600082825403925050819055506001600360008473ffffffffffffffffffffffffffffffffffffffff1673ffffffffffffffffffffffffffffffffffffffff16815260200190815260200160002060008282540192505081905550816002600083815260200190815260200160002060006101000a81548173ffffffffffffffffffffffffffffffffffffffff021916908373ffffffffffffffffffffffffffffffffffffffff160217905550808273ffffffffffffffffffffffffffffffffffffffff168473ffffffffffffffffffffffffffffffffffffffff167fddf252ad1be2c89b69c2b068fc378daa952ba7f163c4a11628f55a4df523b3ef60405160405180910390a461154c8383836001611bc4565b505050565b60006002600083815260200190815260200160002060009054906101000a900473ffffffffffffffffffffffffffffffffffffffff169050919050565b611596611101565b73ffffffffffffffffffffffffffffffffffffffff166115b4610d1e565b73ffffffffffffffffffffffffffffffffffffffff161461160a576040517f08c379a0000000000000000000000000000000000000000000000000000000008152600401611601906135f8565b60405180910390fd5b565b6000600760009054906101000a900473ffffffffffffffffffffffffffffffffffffffff16905081600760006101000a81548173ffffffffffffffffffffffffffffffffffffffff021916908373ffffffffffffffffffffffffffffffffffffffff1602179055508173ffffffffffffffffffffffffffffffffffffffff168173ffffffffffffffffffffffffffffffffffffffff167f8be0079c531659141344cd1fd0a4f28419497f9722a3daafe3b4186f6b6457e060405160405180910390a35050565b600081600001549050919050565b6001816000016000828254019250508190555050565b611710828260405180602001604052806000815250611bca565b5050565b61171d82611b7d565b61175c576040517f08c379a00000000000000000000000000000000000000000000000000000000081526004016117539061368a565b60405180910390fd5b80600660008481526020019081526020016000209080519060200190611783929190612302565b507ff8e1a15aba9398e019f0b49df1a4fde98ee17ae345cb5f6b5e2c27f5033e8ce7826040516117b39190612ac5565b60405180910390a15050565b8173ffffffffffffffffffffffffffffffffffffffff168373ffffffffffffffffffffffffffffffffffffffff16141561182e576040517f08c379a0000000000000000000000000000000000000000000000000000000008152600401611825906136f6565b60405180910390fd5b80600560008573ffffffffffffffffffffffffffffffffffffffff1673ffffffffffffffffffffffffffffffffffffffff16815260200190815260200160002060008473ffffffffffffffffffffffffffffffffffffffff1673ffffffffffffffffffffffffffffffffffffffff16815260200190815260200160002060006101000a81548160ff0219169083151502179055508173ffffffffffffffffffffffffffffffffffffffff168373ffffffffffffffffffffffffffffffffffffffff167f17307eab39ab6107e8899845ad3d59bd9653f200f220920489ca2b5937696c318360405161191f9190612459565b60405180910390a3505050565b611937848484611257565b61194384848484611c25565b611982576040517f08c379a000000000000000000000000000000000000000000000000000000000815260040161197990613788565b60405180910390fd5b50505050565b6060611993826110b6565b60006006600084815260200190815260200160002080546119b390612eb1565b80601f01602080910402602001604051908101604052809291908181526020018280546119df90612eb1565b8015611a2c5780601f10611a0157610100808354040283529160200191611a2c565b820191906000526020600020905b815481529060010190602001808311611a0f57829003601f168201915b505050505090506000611a3d611dad565b9050600081511415611a53578192505050611a96565b600082511115611a88578082604051602001611a709291906137e4565b60405160208183030381529060405292505050611a96565b611a9184611dc4565b925050505b919050565b60007f80ac58cd000000000000000000000000000000000000000000000000000000007bffffffffffffffffffffffffffffffffffffffffffffffffffffffff1916827bffffffffffffffffffffffffffffffffffffffffffffffffffffffff19161480611b6657507f5b5e139f000000000000000000000000000000000000000000000000000000007bffffffffffffffffffffffffffffffffffffffffffffffffffffffff1916827bffffffffffffffffffffffffffffffffffffffffffffffffffffffff1916145b80611b765750611b7582611e2c565b5b9050919050565b60008073ffffffffffffffffffffffffffffffffffffffff16611b9f83611551565b73ffffffffffffffffffffffffffffffffffffffff1614159050919050565b50505050565b50505050565b611bd48383611e96565b611be16000848484611c25565b611c20576040517f08c379a0000000000000000000000000000000000000000000000000000000008152600401611c1790613788565b60405180910390fd5b505050565b6000611c468473ffffffffffffffffffffffffffffffffffffffff166120b4565b15611da0578373ffffffffffffffffffffffffffffffffffffffff1663150b7a02611c6f611101565b8786866040518563ffffffff1660e01b8152600401611c91949392919061385d565b6020604051808303816000875af1925050508015611ccd57506040513d601f19601f82011682018060405250810190611cca91906138be565b60015b611d50573d8060008114611cfd576040519150601f19603f3d011682016040523d82523d6000602084013e611d02565b606091505b50600081511415611d48576040517f08c379a0000000000000000000000000000000000000000000000000000000008152600401611d3f90613788565b60405180910390fd5b805181602001fd5b63150b7a0260e01b7bffffffffffffffffffffffffffffffffffffffffffffffffffffffff1916817bffffffffffffffffffffffffffffffffffffffffffffffffffffffff191614915050611da5565b600190505b949350505050565b606060405180602001604052806000815250905090565b6060611dcf826110b6565b6000611dd9611dad565b90506000815111611df95760405180602001604052806000815250611e24565b80611e03846120d7565b604051602001611e149291906137e4565b6040516020818303038152906040525b915050919050565b60007f01ffc9a7000000000000000000000000000000000000000000000000000000007bffffffffffffffffffffffffffffffffffffffffffffffffffffffff1916827bffffffffffffffffffffffffffffffffffffffffffffffffffffffff1916149050919050565b600073ffffffffffffffffffffffffffffffffffffffff168273ffffffffffffffffffffffffffffffffffffffff161415611f06576040517f08c379a0000000000000000000000000000000000000000000000000000000008152600401611efd90613937565b60405180910390fd5b611f0f81611b7d565b15611f4f576040517f08c379a0000000000000000000000000000000000000000000000000000000008152600401611f46906139a3565b60405180910390fd5b611f5d600083836001611bbe565b611f6681611b7d565b15611fa6576040517f08c379a0000000000000000000000000000000000000000000000000000000008152600401611f9d906139a3565b60405180910390fd5b6001600360008473ffffffffffffffffffffffffffffffffffffffff1673ffffffffffffffffffffffffffffffffffffffff16815260200190815260200160002060008282540192505081905550816002600083815260200190815260200160002060006101000a81548173ffffffffffffffffffffffffffffffffffffffff021916908373ffffffffffffffffffffffffffffffffffffffff160217905550808273ffffffffffffffffffffffffffffffffffffffff16600073ffffffffffffffffffffffffffffffffffffffff167fddf252ad1be2c89b69c2b068fc378daa952ba7f163c4a11628f55a4df523b3ef60405160405180910390a46120b0600083836001611bc4565b5050565b6000808273ffffffffffffffffffffffffffffffffffffffff163b119050919050565b6060600060016120e6846121af565b01905060008167ffffffffffffffff8111156121055761210461272a565b5b6040519080825280601f01601f1916602001820160405280156121375781602001600182028036833780820191505090505b509050600082602001820190505b6001156121a4578080600190039150507f3031323334353637383961626364656600000000000000000000000000000000600a86061a8153600a858161218e5761218d613122565b5b049450600085141561219f576121a4565b612145565b819350505050919050565b600080600090507a184f03e93ff9f4daa797ed6e38ed64bf6a1f010000000000000000831061220d577a184f03e93ff9f4daa797ed6e38ed64bf6a1f010000000000000000838161220357612202613122565b5b0492506040810190505b6d04ee2d6d415b85acef8100000000831061224a576d04ee2d6d415b85acef810000000083816122405761223f613122565b5b0492506020810190505b662386f26fc10000831061227957662386f26fc10000838161226f5761226e613122565b5b0492506010810190505b6305f5e10083106122a2576305f5e100838161229857612297613122565b5b0492506008810190505b61271083106122c75761271083816122bd576122bc613122565b5b0492506004810190505b606483106122ea57606483816122e0576122df613122565b5b0492506002810190505b600a83106122f9576001810190505b80915050919050565b82805461230e90612eb1565b90600052602060002090601f0160209004810192826123305760008555612377565b82601f1061234957805160ff1916838001178555612377565b82800160010185558215612377579182015b8281111561237657825182559160200191906001019061235b565b5b5090506123849190612388565b5090565b5b808211156123a1576000816000905550600101612389565b5090565b6000604051905090565b600080fd5b600080fd5b60007fffffffff0000000000000000000000000000000000000000000000000000000082169050919050565b6123ee816123b9565b81146123f957600080fd5b50565b60008135905061240b816123e5565b92915050565b600060208284031215612427576124266123af565b5b6000612435848285016123fc565b91505092915050565b60008115159050919050565b6124538161243e565b82525050565b600060208201905061246e600083018461244a565b92915050565b600081519050919050565b600082825260208201905092915050565b60005b838110156124ae578082015181840152602081019050612493565b838111156124bd576000848401525b50505050565b6000601f19601f8301169050919050565b60006124df82612474565b6124e9818561247f565b93506124f9818560208601612490565b612502816124c3565b840191505092915050565b6000602082019050818103600083015261252781846124d4565b905092915050565b6000819050919050565b6125428161252f565b811461254d57600080fd5b50565b60008135905061255f81612539565b92915050565b60006020828403121561257b5761257a6123af565b5b600061258984828501612550565b91505092915050565b600073ffffffffffffffffffffffffffffffffffffffff82169050919050565b60006125bd82612592565b9050919050565b6125cd816125b2565b82525050565b60006020820190506125e860008301846125c4565b92915050565b6125f7816125b2565b811461260257600080fd5b50565b600081359050612614816125ee565b92915050565b60008060408385031215612631576126306123af565b5b600061263f85828601612605565b925050602061265085828601612550565b9150509250929050565b600080600060608486031215612673576126726123af565b5b600061268186828701612605565b935050602061269286828701612605565b92505060406126a386828701612550565b9150509250925092565b600080604083850312156126c4576126c36123af565b5b60006126d285828601612550565b92505060206126e385828601612550565b9150509250929050565b6126f68161252f565b82525050565b600060408201905061271160008301856125c4565b61271e60208301846126ed565b9392505050565b600080fd5b7f4e487b7100000000000000000000000000000000000000000000000000000000600052604160045260246000fd5b612762826124c3565b810181811067ffffffffffffffff821117156127815761278061272a565b5b80604052505050565b60006127946123a5565b90506127a08282612759565b919050565b600067ffffffffffffffff8211156127c0576127bf61272a565b5b602082029050602081019050919050565b600080fd5b60006127e96127e4846127a5565b61278a565b9050808382526020820190506020840283018581111561280c5761280b6127d1565b5b835b8181101561283557806128218882612550565b84526020840193505060208101905061280e565b5050509392505050565b600082601f83011261285457612853612725565b5b81356128648482602086016127d6565b91505092915050565b60008060408385031215612884576128836123af565b5b600083013567ffffffffffffffff8111156128a2576128a16123b4565b5b6128ae8582860161283f565b925050602083013567ffffffffffffffff8111156128cf576128ce6123b4565b5b6128db8582860161283f565b9150509250929050565b600081519050919050565b600082825260208201905092915050565b6000819050602082019050919050565b61291a816125b2565b82525050565b600061292c8383612911565b60208301905092915050565b6000602082019050919050565b6000612950826128e5565b61295a81856128f0565b935061296583612901565b8060005b8381101561299657815161297d8882612920565b975061298883612938565b925050600181019050612969565b5085935050505092915050565b600081519050919050565b600082825260208201905092915050565b6000819050602082019050919050565b6129d88161252f565b82525050565b60006129ea83836129cf565b60208301905092915050565b6000602082019050919050565b6000612a0e826129a3565b612a1881856129ae565b9350612a23836129bf565b8060005b83811015612a54578151612a3b88826129de565b9750612a46836129f6565b925050600181019050612a27565b5085935050505092915050565b60006040820190508181036000830152612a7b8185612945565b90508181036020830152612a8f8184612a03565b90509392505050565b600060208284031215612aae57612aad6123af565b5b6000612abc84828501612605565b91505092915050565b6000602082019050612ada60008301846126ed565b92915050565b60006bffffffffffffffffffffffff82169050919050565b612b0181612ae0565b82525050565b6000602082019050612b1c6000830184612af8565b92915050565b600080fd5b600067ffffffffffffffff821115612b4257612b4161272a565b5b612b4b826124c3565b9050602081019050919050565b82818337600083830152505050565b6000612b7a612b7584612b27565b61278a565b905082815260208101848484011115612b9657612b95612b22565b5b612ba1848285612b58565b509392505050565b600082601f830112612bbe57612bbd612725565b5b8135612bce848260208601612b67565b91505092915050565b612be081612ae0565b8114612beb57600080fd5b50565b600081359050612bfd81612bd7565b92915050565b600080600060608486031215612c1c57612c1b6123af565b5b6000612c2a86828701612605565b935050602084013567ffffffffffffffff811115612c4b57612c4a6123b4565b5b612c5786828701612ba9565b9250506040612c6886828701612bee565b9150509250925092565b612c7b8161243e565b8114612c8657600080fd5b50565b600081359050612c9881612c72565b92915050565b60008060408385031215612cb557612cb46123af565b5b6000612cc385828601612605565b9250506020612cd485828601612c89565b9150509250929050565b600067ffffffffffffffff821115612cf957612cf861272a565b5b612d02826124c3565b9050602081019050919050565b6000612d22612d1d84612cde565b61278a565b905082815260208101848484011115612d3e57612d3d612b22565b5b612d49848285612b58565b509392505050565b600082601f830112612d6657612d65612725565b5b8135612d76848260208601612d0f565b91505092915050565b60008060008060808587031215612d9957612d986123af565b5b6000612da787828801612605565b9450506020612db887828801612605565b9350506040612dc987828801612550565b925050606085013567ffffffffffffffff811115612dea57612de96123b4565b5b612df687828801612d51565b91505092959194509250565b60008060408385031215612e1957612e186123af565b5b6000612e2785828601612550565b9250506020612e3885828601612bee565b9150509250929050565b60008060408385031215612e5957612e586123af565b5b6000612e6785828601612605565b9250506020612e7885828601612605565b9150509250929050565b7f4e487b7100000000000000000000000000000000000000000000000000000000600052602260045260246000fd5b60006002820490506001821680612ec957607f821691505b60208210811415612edd57612edc612e82565b5b50919050565b7f4552433732313a20617070726f76616c20746f2063757272656e74206f776e6560008201527f7200000000000000000000000000000000000000000000000000000000000000602082015250565b6000612f3f60218361247f565b9150612f4a82612ee3565b604082019050919050565b60006020820190508181036000830152612f6e81612f32565b9050919050565b7f4552433732313a20617070726f76652063616c6c6572206973206e6f7420746f60008201527f6b656e206f776e6572206f7220617070726f76656420666f7220616c6c000000602082015250565b6000612fd1603d8361247f565b9150612fdc82612f75565b604082019050919050565b6000602082019050818103600083015261300081612fc4565b9050919050565b7f4552433732313a2063616c6c6572206973206e6f7420746f6b656e206f776e6560008201527f72206f7220617070726f76656400000000000000000000000000000000000000602082015250565b6000613063602d8361247f565b915061306e82613007565b604082019050919050565b6000602082019050818103600083015261309281613056565b9050919050565b7f4e487b7100000000000000000000000000000000000000000000000000000000600052601160045260246000fd5b60006130d38261252f565b91506130de8361252f565b9250817fffffffffffffffffffffffffffffffffffffffffffffffffffffffffffffffff048311821515161561311757613116613099565b5b828202905092915050565b7f4e487b7100000000000000000000000000000000000000000000000000000000600052601260045260246000fd5b600061315c8261252f565b91506131678361252f565b92508261317757613176613122565b5b828204905092915050565b7f496e70757420617272617973206d7573742068617665207468652073616d652060008201527f6c656e6774680000000000000000000000000000000000000000000000000000602082015250565b60006131de60268361247f565b91506131e982613182565b604082019050919050565b6000602082019050818103600083015261320d816131d1565b9050919050565b7f4e487b7100000000000000000000000000000000000000000000000000000000600052603260045260246000fd5b600061324e8261252f565b91507fffffffffffffffffffffffffffffffffffffffffffffffffffffffffffffffff82141561328157613280613099565b5b600182019050919050565b7f4552433732313a20696e76616c696420746f6b656e2049440000000000000000600082015250565b60006132c260188361247f565b91506132cd8261328c565b602082019050919050565b600060208201905081810360008301526132f1816132b5565b9050919050565b7f4552433732313a2061646472657373207a65726f206973206e6f74206120766160008201527f6c6964206f776e65720000000000000000000000000000000000000000000000602082015250565b600061335460298361247f565b915061335f826132f8565b604082019050919050565b6000602082019050818103600083015261338381613347565b9050919050565b7f43616c6c6572206973206e6f74206f776e6572206e6f7220617070726f766564600082015250565b60006133c060208361247f565b91506133cb8261338a565b602082019050919050565b600060208201905081810360008301526133ef816133b3565b9050919050565b7f4f776e61626c653a206e6577206f776e657220697320746865207a65726f206160008201527f6464726573730000000000000000000000000000000000000000000000000000602082015250565b600061345260268361247f565b915061345d826133f6565b604082019050919050565b6000602082019050818103600083015261348181613445565b9050919050565b7f4552433732313a207472616e736665722066726f6d20696e636f72726563742060008201527f6f776e6572000000000000000000000000000000000000000000000000000000602082015250565b60006134e460258361247f565b91506134ef82613488565b604082019050919050565b60006020820190508181036000830152613513816134d7565b9050919050565b7f4552433732313a207472616e7366657220746f20746865207a65726f2061646460008201527f7265737300000000000000000000000000000000000000000000000000000000602082015250565b600061357660248361247f565b91506135818261351a565b604082019050919050565b600060208201905081810360008301526135a581613569565b9050919050565b7f4f776e61626c653a2063616c6c6572206973206e6f7420746865206f776e6572600082015250565b60006135e260208361247f565b91506135ed826135ac565b602082019050919050565b60006020820190508181036000830152613611816135d5565b9050919050565b7f45524337323155524953746f726167653a2055524920736574206f66206e6f6e60008201527f6578697374656e7420746f6b656e000000000000000000000000000000000000602082015250565b6000613674602e8361247f565b915061367f82613618565b604082019050919050565b600060208201905081810360008301526136a381613667565b9050919050565b7f4552433732313a20617070726f766520746f2063616c6c657200000000000000600082015250565b60006136e060198361247f565b91506136eb826136aa565b602082019050919050565b6000602082019050818103600083015261370f816136d3565b9050919050565b7f4552433732313a207472616e7366657220746f206e6f6e20455243373231526560008201527f63656976657220696d706c656d656e7465720000000000000000000000000000602082015250565b600061377260328361247f565b915061377d82613716565b604082019050919050565b600060208201905081810360008301526137a181613765565b9050919050565b600081905092915050565b60006137be82612474565b6137c881856137a8565b93506137d8818560208601612490565b80840191505092915050565b60006137f082856137b3565b91506137fc82846137b3565b91508190509392505050565b600081519050919050565b600082825260208201905092915050565b600061382f82613808565b6138398185613813565b9350613849818560208601612490565b613852816124c3565b840191505092915050565b600060808201905061387260008301876125c4565b61387f60208301866125c4565b61388c60408301856126ed565b818103606083015261389e8184613824565b905095945050505050565b6000815190506138b8816123e5565b92915050565b6000602082840312156138d4576138d36123af565b5b60006138e2848285016138a9565b91505092915050565b7f4552433732313a206d696e7420746f20746865207a65726f2061646472657373600082015250565b600061392160208361247f565b915061392c826138eb565b602082019050919050565b6000602082019050818103600083015261395081613914565b9050919050565b7f4552433732313a20746f6b656e20616c7265616479206d696e74656400000000600082015250565b600061398d601c8361247f565b915061399882613957565b602082019050919050565b600060208201905081810360008301526139bc81613980565b905091905056fea264697066735822122027fb3beb29610fb7e4b91ccd2747693811182054d70a14bbc55795ac9a2a336a64736f6c634300080a0033",
  "linkReferences": {},
  "deployedLinkReferences": {}
}