{
  "_format": "hh-sol-artifact-1",
  "contractName": "ArtBlockNFTMarketplace",
  "sourceName": "contracts/NFTMarketplace.sol",
  "abi": [
    {
      "inputs": [
        {
          "internalType": "address",
          "name": "_platformWallet",
          "type": "address"
        },
        {
          "internalType": "address",
          "name": "_stablecoinAddress",
          "type": "address"
        }
      ],
      "stateMutability": "nonpayable",
      "type": "constructor"
    },
    {
      "anonymous": false,
      "inputs": [
        {
          "indexed": true,
          "internalType": "uint256",
          "name": "saleId",
          "type": "uint256"
        },
        {
          "indexed": true,
          "internalType": "address",
          "name": "nftContract",
          "type": "address"
        },
        {
          "indexed": true,
          "internalType": "uint256",
          "name": "tokenId",
          "type": "uint256"
        },
        {
          "indexed": false,
          "internalType": "address",
          "name": "winner",
          "type": "address"
        }
      ],
      "name": "DisputeResolved",
      "type": "event"
    },
    {
      "anonymous": false,
      "inputs": [
        {
          "indexed": true,
          "internalType": "uint256",
          "name": "saleId",
          "type": "uint256"
        },
        {
          "indexed": true,
          "internalType": "address",
          "name": "nftContract",
          "type": "address"
        },
        {
          "indexed": true,
          "internalType": "uint256",
          "name": "tokenId",
          "type": "uint256"
        },
        {
          "indexed": false,
          "internalType": "address",
          "name": "buyer",
          "type": "address"
        }
      ],
      "name": "DisputeStarted",
      "type": "event"
    },
    {
      "anonymous": false,
      "inputs": [
        {
          "indexed": true,
          "internalType": "uint256",
          "name": "saleId",
          "type": "uint256"
        },
        {
          "indexed": true,
          "internalType": "address",
          "name": "nftContract",
          "type": "address"
        },
        {
          "indexed": true,
          "internalType": "uint256",
          "name": "tokenId",
          "type": "uint256"
        },
        {
          "indexed": false,
          "internalType": "address",
          "name": "seller",
          "type": "address"
        }
      ],
      "name": "ItemCanceled",
      "type": "event"
    },
    {
      "anonymous": false,
      "inputs": [
        {
          "indexed": true,
          "internalType": "uint256",
          "name": "saleId",
          "type": "uint256"
        },
        {
          "indexed": true,
          "internalType": "address",
          "name": "nftContract",
          "type": "address"
        },
        {
          "indexed": true,
          "internalType": "uint256",
          "name": "tokenId",
          "type": "uint256"
        },
        {
          "indexed": false,
          "internalType": "address",
          "name": "seller",
          "type": "address"
        },
        {
          "indexed": false,
          "internalType": "uint256",
          "name": "price",
          "type": "uint256"
        }
      ],
      "name": "ItemListed",
      "type": "event"
    },
    {
      "anonymous": false,
      "inputs": [
        {
          "indexed": true,
          "internalType": "uint256",
          "name": "saleId",
          "type": "uint256"
        },
        {
          "indexed": true,
          "internalType": "address",
          "name": "nftContract",
          "type": "address"
        },
        {
          "indexed": true,
          "internalType": "uint256",
          "name": "tokenId",
          "type": "uint256"
        },
        {
          "indexed": false,
          "internalType": "address",
          "name": "seller",
          "type": "address"
        },
        {
          "indexed": false,
          "internalType": "address",
          "name": "buyer",
          "type": "address"
        },
        {
          "indexed": false,
          "internalType": "uint256",
          "name": "price",
          "type": "uint256"
        }
      ],
      "name": "ItemSold",
      "type": "event"
    },
    {
      "anonymous": false,
      "inputs": [
        {
          "indexed": true,
          "internalType": "address",
          "name": "previousOwner",
          "type": "address"
        },
        {
          "indexed": true,
          "internalType": "address",
          "name": "newOwner",
          "type": "address"
        }
      ],
      "name": "OwnershipTransferred",
      "type": "event"
    },
    {
      "anonymous": false,
      "inputs": [
        {
          "indexed": false,
          "internalType": "uint256",
          "name": "amount",
          "type": "uint256"
        },
        {
          "indexed": false,
          "internalType": "address",
          "name": "stablecoin",
          "type": "address"
        }
      ],
      "name": "PlatformRevenueConverted",
      "type": "event"
    },
    {
      "inputs": [
        {
          "internalType": "uint256",
          "name": "saleId",
          "type": "uint256"
        }
      ],
      "name": "buyItem",
      "outputs": [],
      "stateMutability": "payable",
      "type": "function"
    },
    {
      "inputs": [
        {
          "internalType": "uint256",
          "name": "saleId",
          "type": "uint256"
        }
      ],
      "name": "cancelSale",
      "outputs": [],
      "stateMutability": "nonpayable",
      "type": "function"
    },
    {
      "inputs": [
        {
          "internalType": "uint256",
          "name": "amount",
          "type": "uint256"
        }
      ],
      "name": "convertPlatformRevenueToStablecoin",
      "outputs": [],
      "stateMutability": "nonpayable",
      "type": "function"
    },
    {
      "inputs": [],
      "name": "disputePeriod",
      "outputs": [
        {
          "internalType": "uint256",
          "name": "",
          "type": "uint256"
        }
      ],
      "stateMutability": "view",
      "type": "function"
    },
    {
      "inputs": [
        {
          "internalType": "address",
          "name": "user",
          "type": "address"
        }
      ],
      "name": "getPurchasesByUser",
      "outputs": [
        {
          "components": [
            {
              "internalType": "uint256",
              "name": "tokenId",
              "type": "uint256"
            },
            {
              "internalType": "address",
              "name": "nftContract",
              "type": "address"
            },
            {
              "internalType": "address",
              "name": "seller",
              "type": "address"
            },
            {
              "internalType": "address",
              "name": "buyer",
              "type": "address"
            },
            {
              "internalType": "uint256",
              "name": "price",
              "type": "uint256"
            },
            {
              "internalType": "enum ArtBlockNFTMarketplace.SaleStatus",
              "name": "status",
              "type": "uint8"
            },
            {
              "internalType": "uint256",
              "name": "createdAt",
              "type": "uint256"
            },
            {
              "internalType": "uint256",
              "name": "updatedAt",
              "type": "uint256"
            },
            {
              "internalType": "uint256",
              "name": "disputeEndTime",
              "type": "uint256"
            }
          ],
          "internalType": "struct ArtBlockNFTMarketplace.Sale[]",
          "name": "",
          "type": "tuple[]"
        }
      ],
      "stateMutability": "view",
      "type": "function"
    },
    {
      "inputs": [
        {
          "internalType": "address",
          "name": "user",
          "type": "address"
        }
      ],
      "name": "getSalesByUser",
      "outputs": [
        {
          "components": [
            {
              "internalType": "uint256",
              "name": "tokenId",
              "type": "uint256"
            },
            {
              "internalType": "address",
              "name": "nftContract",
              "type": "address"
            },
            {
              "internalType": "address",
              "name": "seller",
              "type": "address"
            },
            {
              "internalType": "address",
              "name": "buyer",
              "type": "address"
            },
            {
              "internalType": "uint256",
              "name": "price",
              "type": "uint256"
            },
            {
              "internalType": "enum ArtBlockNFTMarketplace.SaleStatus",
              "name": "status",
              "type": "uint8"
            },
            {
              "internalType": "uint256",
              "name": "createdAt",
              "type": "uint256"
            },
            {
              "internalType": "uint256",
              "name": "updatedAt",
              "type": "uint256"
            },
            {
              "internalType": "uint256",
              "name": "disputeEndTime",
              "type": "uint256"
            }
          ],
          "internalType": "struct ArtBlockNFTMarketplace.Sale[]",
          "name": "",
          "type": "tuple[]"
        }
      ],
      "stateMutability": "view",
      "type": "function"
    },
    {
      "inputs": [
        {
          "internalType": "address",
          "name": "nftContract",
          "type": "address"
        },
        {
          "internalType": "uint256",
          "name": "tokenId",
          "type": "uint256"
        }
      ],
      "name": "getSalesForNFT",
      "outputs": [
        {
          "components": [
            {
              "internalType": "uint256",
              "name": "tokenId",
              "type": "uint256"
            },
            {
              "internalType": "address",
              "name": "nftContract",
              "type": "address"
            },
            {
              "internalType": "address",
              "name": "seller",
              "type": "address"
            },
            {
              "internalType": "address",
              "name": "buyer",
              "type": "address"
            },
            {
              "internalType": "uint256",
              "name": "price",
              "type": "uint256"
            },
            {
              "internalType": "enum ArtBlockNFTMarketplace.SaleStatus",
              "name": "status",
              "type": "uint8"
            },
            {
              "internalType": "uint256",
              "name": "createdAt",
              "type": "uint256"
            },
            {
              "internalType": "uint256",
              "name": "updatedAt",
              "type": "uint256"
            },
            {
              "internalType": "uint256",
              "name": "disputeEndTime",
              "type": "uint256"
            }
          ],
          "internalType": "struct ArtBlockNFTMarketplace.Sale[]",
          "name": "",
          "type": "tuple[]"
        }
      ],
      "stateMutability": "view",
      "type": "function"
    },
    {
      "inputs": [
        {
          "internalType": "address",
          "name": "nftContract",
          "type": "address"
        },
        {
          "internalType": "uint256",
          "name": "tokenId",
          "type": "uint256"
        },
        {
          "internalType": "uint256",
          "name": "price",
          "type": "uint256"
        }
      ],
      "name": "listItem",
      "outputs": [],
      "stateMutability": "nonpayable",
      "type": "function"
    },
    {
      "inputs": [],
      "name": "owner",
      "outputs": [
        {
          "internalType": "address",
          "name": "",
          "type": "address"
        }
      ],
      "stateMutability": "view",
      "type": "function"
    },
    {
      "inputs": [],
      "name": "platformFeePercentage",
      "outputs": [
        {
          "internalType": "uint96",
          "name": "",
          "type": "uint96"
        }
      ],
      "stateMutability": "view",
      "type": "function"
    },
    {
      "inputs": [],
      "name": "platformWallet",
      "outputs": [
        {
          "internalType": "address",
          "name": "",
          "type": "address"
        }
      ],
      "stateMutability": "view",
      "type": "function"
    },
    {
      "inputs": [],
      "name": "renounceOwnership",
      "outputs": [],
      "stateMutability": "nonpayable",
      "type": "function"
    },
    {
      "inputs": [
        {
          "internalType": "uint256",
          "name": "saleId",
          "type": "uint256"
        },
        {
          "internalType": "bool",
          "name": "refundBuyer",
          "type": "bool"
        }
      ],
      "name": "resolveDispute",
      "outputs": [],
      "stateMutability": "nonpayable",
      "type": "function"
    },
    {
      "inputs": [],
      "name": "saleCount",
      "outputs": [
        {
          "internalType": "uint256",
          "name": "",
          "type": "uint256"
        }
      ],
      "stateMutability": "view",
      "type": "function"
    },
    {
      "inputs": [
        {
          "internalType": "uint256",
          "name": "",
          "type": "uint256"
        }
      ],
      "name": "sales",
      "outputs": [
        {
          "internalType": "uint256",
          "name": "tokenId",
          "type": "uint256"
        },
        {
          "internalType": "address",
          "name": "nftContract",
          "type": "address"
        },
        {
          "internalType": "address",
          "name": "seller",
          "type": "address"
        },
        {
          "internalType": "address",
          "name": "buyer",
          "type": "address"
        },
        {
          "internalType": "uint256",
          "name": "price",
          "type": "uint256"
        },
        {
          "internalType": "enum ArtBlockNFTMarketplace.SaleStatus",
          "name": "status",
          "type": "uint8"
        },
        {
          "internalType": "uint256",
          "name": "createdAt",
          "type": "uint256"
        },
        {
          "internalType": "uint256",
          "name": "updatedAt",
          "type": "uint256"
        },
        {
          "internalType": "uint256",
          "name": "disputeEndTime",
          "type": "uint256"
        }
      ],
      "stateMutability": "view",
      "type": "function"
    },
    {
      "inputs": [
        {
          "internalType": "uint256",
          "name": "newDisputePeriod",
          "type": "uint256"
        }
      ],
      "name": "setDisputePeriod",
      "outputs": [],
      "stateMutability": "nonpayable",
      "type": "function"
    },
    {
      "inputs": [
        {
          "internalType": "uint96",
          "name": "newFeePercentage",
          "type": "uint96"
        }
      ],
      "name": "setPlatformFeePercentage",
      "outputs": [],
      "stateMutability": "nonpayable",
      "type": "function"
    },
    {
      "inputs": [
        {
          "internalType": "address",
          "name": "newPlatformWallet",
          "type": "address"
        }
      ],
      "name": "setPlatformWallet",
      "outputs": [],
      "stateMutability": "nonpayable",
      "type": "function"
    },
    {
      "inputs": [
        {
          "internalType": "address",
          "name": "newStablecoinAddress",
          "type": "address"
        }
      ],
      "name": "setStablecoinAddress",
      "outputs": [],
      "stateMutability": "nonpayable",
      "type": "function"
    },
    {
      "inputs": [],
      "name": "stablecoinAddress",
      "outputs": [
        {
          "internalType": "address",
          "name": "",
          "type": "address"
        }
      ],
      "stateMutability": "view",
      "type": "function"
    },
    {
      "inputs": [
        {
          "internalType": "uint256",
          "name": "saleId",
          "type": "uint256"
        }
      ],
      "name": "startDispute",
      "outputs": [],
      "stateMutability": "nonpayable",
      "type": "function"
    },
    {
      "inputs": [
        {
          "internalType": "address",
          "name": "newOwner",
          "type": "address"
        }
      ],
      "name": "transferOwnership",
      "outputs": [],
      "stateMutability": "nonpayable",
      "type": "function"
    }
  ],
  "bytecode": "0x608060405260c8600260006101000a8154816bffffffffffffffffffffffff02191690836bffffffffffffffffffffffff1602179055506203f4806003553480156200004a57600080fd5b5060405162003c6b38038062003c6b833981810160405281019062000070919062000257565b62000090620000846200012160201b60201c565b6200012960201b60201c565b6001808190555081600460006101000a81548173ffffffffffffffffffffffffffffffffffffffff021916908373ffffffffffffffffffffffffffffffffffffffff16021790555080600560006101000a81548173ffffffffffffffffffffffffffffffffffffffff021916908373ffffffffffffffffffffffffffffffffffffffff16021790555050506200029e565b600033905090565b60008060009054906101000a900473ffffffffffffffffffffffffffffffffffffffff169050816000806101000a81548173ffffffffffffffffffffffffffffffffffffffff021916908373ffffffffffffffffffffffffffffffffffffffff1602179055508173ffffffffffffffffffffffffffffffffffffffff168173ffffffffffffffffffffffffffffffffffffffff167f8be0079c531659141344cd1fd0a4f28419497f9722a3daafe3b4186f6b6457e060405160405180910390a35050565b600080fd5b600073ffffffffffffffffffffffffffffffffffffffff82169050919050565b60006200021f82620001f2565b9050919050565b620002318162000212565b81146200023d57600080fd5b50565b600081519050620002518162000226565b92915050565b60008060408385031215620002715762000270620001ed565b5b6000620002818582860162000240565b9250506020620002948582860162000240565b9150509250929050565b6139bd80620002ae6000396000f3fe6080604052600436106101355760003560e01c8063a1e89aec116100ab578063bd94b0051161006f578063bd94b00514610418578063c0cfa7e514610441578063cdd78cfc1461046a578063e7fb74c714610495578063f2fde38b146104b1578063fa2af9da146104da57610135565b8063a1e89aec14610319578063a83ba53e14610344578063b5f522f71461036d578063b63f5607146103b2578063b7e26d4a146103db57610135565b8063788a112c116100fd578063788a112c1461020d5780638831e9cf1461023657806389bfd38f1461025f5780638c9fbb4e146102885780638da5cb5b146102c55780639ecd0500146102f057610135565b806334b25ee21461013a578063423e16b4146101635780635bf31d4d146101a0578063615737ef146101cb578063715018a6146101f6575b600080fd5b34801561014657600080fd5b50610161600480360381019061015c91906129ae565b610505565b005b34801561016f57600080fd5b5061018a60048036038101906101859190612a4c565b610878565b6040516101979190612c75565b60405180910390f35b3480156101ac57600080fd5b506101b5610d0f565b6040516101c29190612ca6565b60405180910390f35b3480156101d757600080fd5b506101e0610d15565b6040516101ed9190612cd0565b60405180910390f35b34801561020257600080fd5b5061020b610d3b565b005b34801561021957600080fd5b50610234600480360381019061022f9190612d2f565b610d4f565b005b34801561024257600080fd5b5061025d60048036038101906102589190612a4c565b610dde565b005b34801561026b57600080fd5b5061028660048036038101906102819190612d5c565b610e2a565b005b34801561029457600080fd5b506102af60048036038101906102aa9190612daf565b61132c565b6040516102bc9190612c75565b60405180910390f35b3480156102d157600080fd5b506102da6116bc565b6040516102e79190612cd0565b60405180910390f35b3480156102fc57600080fd5b5061031760048036038101906103129190612a4c565b6116e5565b005b34801561032557600080fd5b5061032e611731565b60405161033b9190612ca6565b60405180910390f35b34801561035057600080fd5b5061036b60048036038101906103669190612def565b611737565b005b34801561037957600080fd5b50610394600480360381019061038f9190612def565b611749565b6040516103a999989796959493929190612e2b565b60405180910390f35b3480156103be57600080fd5b506103d960048036038101906103d49190612def565b611804565b005b3480156103e757600080fd5b5061040260048036038101906103fd9190612a4c565b61186a565b60405161040f9190612c75565b60405180910390f35b34801561042457600080fd5b5061043f600480360381019061043a9190612def565b611c5d565b005b34801561044d57600080fd5b5061046860048036038101906104639190612def565b611e40565b005b34801561047657600080fd5b5061047f61208c565b60405161048c9190612ec7565b60405180910390f35b6104af60048036038101906104aa9190612def565b6120aa565b005b3480156104bd57600080fd5b506104d860048036038101906104d39190612a4c565b61264e565b005b3480156104e657600080fd5b506104ef6126d2565b6040516104fc9190612cd0565b60405180910390f35b61050d6126f8565b610515612748565b600060066000848152602001908152602001600020905060038081111561053f5761053e612ac3565b5b8160050160009054906101000a900460ff16600381111561056357610562612ac3565b5b146105a3576040517f08c379a000000000000000000000000000000000000000000000000000000000815260040161059a90612f3f565b60405180910390fd5b8115610798578060030160009054906101000a900473ffffffffffffffffffffffffffffffffffffffff1673ffffffffffffffffffffffffffffffffffffffff166108fc82600401549081150290604051600060405180830381858888f19350505050158015610617573d6000803e3d6000fd5b508060010160009054906101000a900473ffffffffffffffffffffffffffffffffffffffff1673ffffffffffffffffffffffffffffffffffffffff166342842e0e8260030160009054906101000a900473ffffffffffffffffffffffffffffffffffffffff168360020160009054906101000a900473ffffffffffffffffffffffffffffffffffffffff1684600001546040518463ffffffff1660e01b81526004016106c593929190612f5f565b600060405180830381600087803b1580156106df57600080fd5b505af11580156106f3573d6000803e3d6000fd5b5050505080600001548160010160009054906101000a900473ffffffffffffffffffffffffffffffffffffffff1673ffffffffffffffffffffffffffffffffffffffff16847f28e163747c48f082e5598a7a9eb858867d8bfb390acd3814a60fbd74b9ffa8168460030160009054906101000a900473ffffffffffffffffffffffffffffffffffffffff1660405161078b9190612cd0565b60405180910390a4610835565b80600001548160010160009054906101000a900473ffffffffffffffffffffffffffffffffffffffff1673ffffffffffffffffffffffffffffffffffffffff16847f28e163747c48f082e5598a7a9eb858867d8bfb390acd3814a60fbd74b9ffa8168460020160009054906101000a900473ffffffffffffffffffffffffffffffffffffffff1660405161082c9190612cd0565b60405180910390a45b60018160050160006101000a81548160ff0219169083600381111561085d5761085c612ac3565b5b0217905550428160070181905550506108746127c6565b5050565b6060600080600190505b60075481116109bc578373ffffffffffffffffffffffffffffffffffffffff166006600083815260200190815260200160002060020160009054906101000a900473ffffffffffffffffffffffffffffffffffffffff1673ffffffffffffffffffffffffffffffffffffffff1614801561099557506000600381111561090b5761090a612ac3565b5b6006600083815260200190815260200160002060050160009054906101000a900460ff16600381111561094157610940612ac3565b5b148061099457506001600381111561095c5761095b612ac3565b5b6006600083815260200190815260200160002060050160009054906101000a900460ff16600381111561099257610991612ac3565b5b145b5b156109a95781806109a590612fc5565b9250505b80806109b490612fc5565b915050610882565b5060008167ffffffffffffffff8111156109d9576109d861300e565b5b604051908082528060200260200182016040528015610a1257816020015b6109ff61289b565b8152602001906001900390816109f75790505b509050600080600190505b6007548111610d03578573ffffffffffffffffffffffffffffffffffffffff166006600083815260200190815260200160002060020160009054906101000a900473ffffffffffffffffffffffffffffffffffffffff1673ffffffffffffffffffffffffffffffffffffffff16148015610b30575060006003811115610aa657610aa5612ac3565b5b6006600083815260200190815260200160002060050160009054906101000a900460ff166003811115610adc57610adb612ac3565b5b1480610b2f575060016003811115610af757610af6612ac3565b5b6006600083815260200190815260200160002060050160009054906101000a900460ff166003811115610b2d57610b2c612ac3565b5b145b5b15610cf0576006600082815260200190815260200160002060405180610120016040529081600082015481526020016001820160009054906101000a900473ffffffffffffffffffffffffffffffffffffffff1673ffffffffffffffffffffffffffffffffffffffff1673ffffffffffffffffffffffffffffffffffffffff1681526020016002820160009054906101000a900473ffffffffffffffffffffffffffffffffffffffff1673ffffffffffffffffffffffffffffffffffffffff1673ffffffffffffffffffffffffffffffffffffffff1681526020016003820160009054906101000a900473ffffffffffffffffffffffffffffffffffffffff1673ffffffffffffffffffffffffffffffffffffffff1673ffffffffffffffffffffffffffffffffffffffff168152602001600482015481526020016005820160009054906101000a900460ff166003811115610c8f57610c8e612ac3565b5b6003811115610ca157610ca0612ac3565b5b81526020016006820154815260200160078201548152602001600882015481525050838381518110610cd657610cd561303d565b5b60200260200101819052508180610cec90612fc5565b9250505b8080610cfb90612fc5565b915050610a1d565b50819350505050919050565b60035481565b600560009054906101000a900473ffffffffffffffffffffffffffffffffffffffff1681565b610d43612748565b610d4d60006127cf565b565b610d57612748565b6103e8816bffffffffffffffffffffffff161115610daa576040517f08c379a0000000000000000000000000000000000000000000000000000000008152600401610da1906130b8565b60405180910390fd5b80600260006101000a8154816bffffffffffffffffffffffff02191690836bffffffffffffffffffffffff16021790555050565b610de6612748565b80600460006101000a81548173ffffffffffffffffffffffffffffffffffffffff021916908373ffffffffffffffffffffffffffffffffffffffff16021790555050565b610e326126f8565b60008111610e75576040517f08c379a0000000000000000000000000000000000000000000000000000000008152600401610e6c90613124565b60405180910390fd5b60008390503373ffffffffffffffffffffffffffffffffffffffff168173ffffffffffffffffffffffffffffffffffffffff16636352211e856040518263ffffffff1660e01b8152600401610eca9190612ca6565b602060405180830381865afa158015610ee7573d6000803e3d6000fd5b505050506040513d601f19601f82011682018060405250810190610f0b9190613159565b73ffffffffffffffffffffffffffffffffffffffff1614610f61576040517f08c379a0000000000000000000000000000000000000000000000000000000008152600401610f58906131d2565b60405180910390fd5b3073ffffffffffffffffffffffffffffffffffffffff168173ffffffffffffffffffffffffffffffffffffffff1663081812fc856040518263ffffffff1660e01b8152600401610fb19190612ca6565b602060405180830381865afa158015610fce573d6000803e3d6000fd5b505050506040513d601f19601f82011682018060405250810190610ff29190613159565b73ffffffffffffffffffffffffffffffffffffffff16148061108c57508073ffffffffffffffffffffffffffffffffffffffff1663e985e9c533306040518363ffffffff1660e01b815260040161104a9291906131f2565b602060405180830381865afa158015611067573d6000803e3d6000fd5b505050506040513d601f19601f8201168201806040525081019061108b9190613230565b5b6110cb576040517f08c379a00000000000000000000000000000000000000000000000000000000081526004016110c2906132cf565b60405180910390fd5b600760008154809291906110de90612fc5565b91905055506040518061012001604052808481526020018573ffffffffffffffffffffffffffffffffffffffff1681526020013373ffffffffffffffffffffffffffffffffffffffff168152602001600073ffffffffffffffffffffffffffffffffffffffff1681526020018381526020016000600381111561116457611163612ac3565b5b815260200142815260200142815260200160008152506006600060075481526020019081526020016000206000820151816000015560208201518160010160006101000a81548173ffffffffffffffffffffffffffffffffffffffff021916908373ffffffffffffffffffffffffffffffffffffffff16021790555060408201518160020160006101000a81548173ffffffffffffffffffffffffffffffffffffffff021916908373ffffffffffffffffffffffffffffffffffffffff16021790555060608201518160030160006101000a81548173ffffffffffffffffffffffffffffffffffffffff021916908373ffffffffffffffffffffffffffffffffffffffff1602179055506080820151816004015560a08201518160050160006101000a81548160ff021916908360038111156112a3576112a2612ac3565b5b021790555060c0820151816006015560e082015181600701556101008201518160080155905050828473ffffffffffffffffffffffffffffffffffffffff166007547ffc03b4e2884c77019bbed322825d5474a29f5a432ee06b79726bb2b5b707fae533866040516113169291906132ef565b60405180910390a4506113276127c6565b505050565b6060600080600190505b60075481116113ec578473ffffffffffffffffffffffffffffffffffffffff166006600083815260200190815260200160002060010160009054906101000a900473ffffffffffffffffffffffffffffffffffffffff1673ffffffffffffffffffffffffffffffffffffffff161480156113c55750836006600083815260200190815260200160002060000154145b156113d95781806113d590612fc5565b9250505b80806113e490612fc5565b915050611336565b5060008167ffffffffffffffff8111156114095761140861300e565b5b60405190808252806020026020018201604052801561144257816020015b61142f61289b565b8152602001906001900390816114275790505b509050600080600190505b60075481116116af578673ffffffffffffffffffffffffffffffffffffffff166006600083815260200190815260200160002060010160009054906101000a900473ffffffffffffffffffffffffffffffffffffffff1673ffffffffffffffffffffffffffffffffffffffff161480156114dc5750856006600083815260200190815260200160002060000154145b1561169c576006600082815260200190815260200160002060405180610120016040529081600082015481526020016001820160009054906101000a900473ffffffffffffffffffffffffffffffffffffffff1673ffffffffffffffffffffffffffffffffffffffff1673ffffffffffffffffffffffffffffffffffffffff1681526020016002820160009054906101000a900473ffffffffffffffffffffffffffffffffffffffff1673ffffffffffffffffffffffffffffffffffffffff1673ffffffffffffffffffffffffffffffffffffffff1681526020016003820160009054906101000a900473ffffffffffffffffffffffffffffffffffffffff1673ffffffffffffffffffffffffffffffffffffffff1673ffffffffffffffffffffffffffffffffffffffff168152602001600482015481526020016005820160009054906101000a900460ff16600381111561163b5761163a612ac3565b5b600381111561164d5761164c612ac3565b5b815260200160068201548152602001600782015481526020016008820154815250508383815181106116825761168161303d565b5b6020026020010181905250818061169890612fc5565b9250505b80806116a790612fc5565b91505061144d565b5081935050505092915050565b60008060009054906101000a900473ffffffffffffffffffffffffffffffffffffffff16905090565b6116ed612748565b80600560006101000a81548173ffffffffffffffffffffffffffffffffffffffff021916908373ffffffffffffffffffffffffffffffffffffffff16021790555050565b60075481565b61173f612748565b8060038190555050565b60066020528060005260406000206000915090508060000154908060010160009054906101000a900473ffffffffffffffffffffffffffffffffffffffff16908060020160009054906101000a900473ffffffffffffffffffffffffffffffffffffffff16908060030160009054906101000a900473ffffffffffffffffffffffffffffffffffffffff16908060040154908060050160009054906101000a900460ff16908060060154908060070154908060080154905089565b61180c612748565b7f99e613322bf0dadb43b172873653cc81d0efd523b68b1962bb5e0ebf59fd25cb81600560009054906101000a900473ffffffffffffffffffffffffffffffffffffffff1660405161185f929190613318565b60405180910390a150565b6060600080600190505b600754811161195c578373ffffffffffffffffffffffffffffffffffffffff166006600083815260200190815260200160002060030160009054906101000a900473ffffffffffffffffffffffffffffffffffffffff1673ffffffffffffffffffffffffffffffffffffffff161480156119355750600160038111156118fd576118fc612ac3565b5b6006600083815260200190815260200160002060050160009054906101000a900460ff16600381111561193357611932612ac3565b5b145b1561194957818061194590612fc5565b9250505b808061195490612fc5565b915050611874565b5060008167ffffffffffffffff8111156119795761197861300e565b5b6040519080825280602002602001820160405280156119b257816020015b61199f61289b565b8152602001906001900390816119975790505b509050600080600190505b6007548111611c51578573ffffffffffffffffffffffffffffffffffffffff166006600083815260200190815260200160002060030160009054906101000a900473ffffffffffffffffffffffffffffffffffffffff1673ffffffffffffffffffffffffffffffffffffffff16148015611a7e575060016003811115611a4657611a45612ac3565b5b6006600083815260200190815260200160002060050160009054906101000a900460ff166003811115611a7c57611a7b612ac3565b5b145b15611c3e576006600082815260200190815260200160002060405180610120016040529081600082015481526020016001820160009054906101000a900473ffffffffffffffffffffffffffffffffffffffff1673ffffffffffffffffffffffffffffffffffffffff1673ffffffffffffffffffffffffffffffffffffffff1681526020016002820160009054906101000a900473ffffffffffffffffffffffffffffffffffffffff1673ffffffffffffffffffffffffffffffffffffffff1673ffffffffffffffffffffffffffffffffffffffff1681526020016003820160009054906101000a900473ffffffffffffffffffffffffffffffffffffffff1673ffffffffffffffffffffffffffffffffffffffff1673ffffffffffffffffffffffffffffffffffffffff168152602001600482015481526020016005820160009054906101000a900460ff166003811115611bdd57611bdc612ac3565b5b6003811115611bef57611bee612ac3565b5b81526020016006820154815260200160078201548152602001600882015481525050838381518110611c2457611c2361303d565b5b60200260200101819052508180611c3a90612fc5565b9250505b8080611c4990612fc5565b9150506119bd565b50819350505050919050565b611c656126f8565b600060066000838152602001908152602001600020905060006003811115611c9057611c8f612ac3565b5b8160050160009054906101000a900460ff166003811115611cb457611cb3612ac3565b5b14611cf4576040517f08c379a0000000000000000000000000000000000000000000000000000000008152600401611ceb9061338d565b60405180910390fd5b8060020160009054906101000a900473ffffffffffffffffffffffffffffffffffffffff1673ffffffffffffffffffffffffffffffffffffffff163373ffffffffffffffffffffffffffffffffffffffff1614611d86576040517f08c379a0000000000000000000000000000000000000000000000000000000008152600401611d7d906133f9565b60405180910390fd5b60028160050160006101000a81548160ff02191690836003811115611dae57611dad612ac3565b5b021790555042816007018190555080600001548160010160009054906101000a900473ffffffffffffffffffffffffffffffffffffffff1673ffffffffffffffffffffffffffffffffffffffff16837fdfa914c5979c4f1c797b606198b16f52beb844527fc111decc48e784f696d27a33604051611e2c9190612cd0565b60405180910390a450611e3d6127c6565b50565b611e486126f8565b600060066000838152602001908152602001600020905060016003811115611e7357611e72612ac3565b5b8160050160009054906101000a900460ff166003811115611e9757611e96612ac3565b5b14611ed7576040517f08c379a0000000000000000000000000000000000000000000000000000000008152600401611ece9061348b565b60405180910390fd5b8060030160009054906101000a900473ffffffffffffffffffffffffffffffffffffffff1673ffffffffffffffffffffffffffffffffffffffff163373ffffffffffffffffffffffffffffffffffffffff1614611f69576040517f08c379a0000000000000000000000000000000000000000000000000000000008152600401611f60906134f7565b60405180910390fd5b6003548160070154611f7b9190613517565b4210611fbc576040517f08c379a0000000000000000000000000000000000000000000000000000000008152600401611fb3906135b9565b60405180910390fd5b60038160050160006101000a81548160ff02191690836003811115611fe457611fe3612ac3565b5b021790555060035442611ff79190613517565b816008018190555042816007018190555080600001548160010160009054906101000a900473ffffffffffffffffffffffffffffffffffffffff1673ffffffffffffffffffffffffffffffffffffffff16837fda33a726eccc8dfc28a3020ef0dd91038f1fbdb387152c05c137f6e5e5653497336040516120789190612cd0565b60405180910390a4506120896127c6565b50565b600260009054906101000a90046bffffffffffffffffffffffff1681565b6120b26126f8565b6000600660008381526020019081526020016000209050600060038111156120dd576120dc612ac3565b5b8160050160009054906101000a900460ff16600381111561210157612100612ac3565b5b14612141576040517f08c379a000000000000000000000000000000000000000000000000000000000815260040161213890613625565b60405180910390fd5b8060040154341015612188576040517f08c379a000000000000000000000000000000000000000000000000000000000815260040161217f90613691565b60405180910390fd5b8060010160009054906101000a900473ffffffffffffffffffffffffffffffffffffffff1673ffffffffffffffffffffffffffffffffffffffff166342842e0e8260020160009054906101000a900473ffffffffffffffffffffffffffffffffffffffff163384600001546040518463ffffffff1660e01b815260040161221193929190612f5f565b600060405180830381600087803b15801561222b57600080fd5b505af115801561223f573d6000803e3d6000fd5b505050506000612710600260009054906101000a90046bffffffffffffffffffffffff166bffffffffffffffffffffffff16836004015461228091906136b1565b61228a919061373a565b90506000808360010160009054906101000a900473ffffffffffffffffffffffffffffffffffffffff1673ffffffffffffffffffffffffffffffffffffffff16632a55205a856000015486600401546040518363ffffffff1660e01b81526004016122f692919061376b565b6040805180830381865afa92505050801561232f57506040513d601f19601f8201168201806040525081019061232c91906137a9565b60015b61233857612341565b81925080935050505b60008284866004015461235491906137e9565b61235e91906137e9565b905060008311801561239d5750600073ffffffffffffffffffffffffffffffffffffffff168273ffffffffffffffffffffffffffffffffffffffff1614155b156123ea578173ffffffffffffffffffffffffffffffffffffffff166108fc849081150290604051600060405180830381858888f193505050501580156123e8573d6000803e3d6000fd5b505b8460020160009054906101000a900473ffffffffffffffffffffffffffffffffffffffff1673ffffffffffffffffffffffffffffffffffffffff166108fc829081150290604051600060405180830381858888f19350505050158015612454573d6000803e3d6000fd5b50600460009054906101000a900473ffffffffffffffffffffffffffffffffffffffff1673ffffffffffffffffffffffffffffffffffffffff166108fc859081150290604051600060405180830381858888f193505050501580156124bd573d6000803e3d6000fd5b50338560030160006101000a81548173ffffffffffffffffffffffffffffffffffffffff021916908373ffffffffffffffffffffffffffffffffffffffff16021790555060018560050160006101000a81548160ff0219169083600381111561252957612528612ac3565b5b0217905550428560070181905550846004015434111561259a573373ffffffffffffffffffffffffffffffffffffffff166108fc86600401543461256d91906137e9565b9081150290604051600060405180830381858888f19350505050158015612598573d6000803e3d6000fd5b505b84600001548560010160009054906101000a900473ffffffffffffffffffffffffffffffffffffffff1673ffffffffffffffffffffffffffffffffffffffff16877fda3037e3cf7786efa975ab8c48d5e5f239cb6dc1d00cee1abce948356555b97b8860020160009054906101000a900473ffffffffffffffffffffffffffffffffffffffff16338a6004015460405161263693929190612f5f565b60405180910390a4505050505061264b6127c6565b50565b612656612748565b600073ffffffffffffffffffffffffffffffffffffffff168173ffffffffffffffffffffffffffffffffffffffff1614156126c6576040517f08c379a00000000000000000000000000000000000000000000000000000000081526004016126bd9061388f565b60405180910390fd5b6126cf816127cf565b50565b600460009054906101000a900473ffffffffffffffffffffffffffffffffffffffff1681565b6002600154141561273e576040517f08c379a0000000000000000000000000000000000000000000000000000000008152600401612735906138fb565b60405180910390fd5b6002600181905550565b612750612893565b73ffffffffffffffffffffffffffffffffffffffff1661276e6116bc565b73ffffffffffffffffffffffffffffffffffffffff16146127c4576040517f08c379a00000000000000000000000000000000000000000000000000000000081526004016127bb90613967565b60405180910390fd5b565b60018081905550565b60008060009054906101000a900473ffffffffffffffffffffffffffffffffffffffff169050816000806101000a81548173ffffffffffffffffffffffffffffffffffffffff021916908373ffffffffffffffffffffffffffffffffffffffff1602179055508173ffffffffffffffffffffffffffffffffffffffff168173ffffffffffffffffffffffffffffffffffffffff167f8be0079c531659141344cd1fd0a4f28419497f9722a3daafe3b4186f6b6457e060405160405180910390a35050565b600033905090565b60405180610120016040528060008152602001600073ffffffffffffffffffffffffffffffffffffffff168152602001600073ffffffffffffffffffffffffffffffffffffffff168152602001600073ffffffffffffffffffffffffffffffffffffffff16815260200160008152602001600060038111156129205761291f612ac3565b5b81526020016000815260200160008152602001600081525090565b600080fd5b6000819050919050565b61295381612940565b811461295e57600080fd5b50565b6000813590506129708161294a565b92915050565b60008115159050919050565b61298b81612976565b811461299657600080fd5b50565b6000813590506129a881612982565b92915050565b600080604083850312156129c5576129c461293b565b5b60006129d385828601612961565b92505060206129e485828601612999565b9150509250929050565b600073ffffffffffffffffffffffffffffffffffffffff82169050919050565b6000612a19826129ee565b9050919050565b612a2981612a0e565b8114612a3457600080fd5b50565b600081359050612a4681612a20565b92915050565b600060208284031215612a6257612a6161293b565b5b6000612a7084828501612a37565b91505092915050565b600081519050919050565b600082825260208201905092915050565b6000819050602082019050919050565b612aae81612940565b82525050565b612abd81612a0e565b82525050565b7f4e487b7100000000000000000000000000000000000000000000000000000000600052602160045260246000fd5b60048110612b0357612b02612ac3565b5b50565b6000819050612b1482612af2565b919050565b6000612b2482612b06565b9050919050565b612b3481612b19565b82525050565b61012082016000820151612b516000850182612aa5565b506020820151612b646020850182612ab4565b506040820151612b776040850182612ab4565b506060820151612b8a6060850182612ab4565b506080820151612b9d6080850182612aa5565b5060a0820151612bb060a0850182612b2b565b5060c0820151612bc360c0850182612aa5565b5060e0820151612bd660e0850182612aa5565b50610100820151612beb610100850182612aa5565b50505050565b6000612bfd8383612b3a565b6101208301905092915050565b6000602082019050919050565b6000612c2282612a79565b612c2c8185612a84565b9350612c3783612a95565b8060005b83811015612c68578151612c4f8882612bf1565b9750612c5a83612c0a565b925050600181019050612c3b565b5085935050505092915050565b60006020820190508181036000830152612c8f8184612c17565b905092915050565b612ca081612940565b82525050565b6000602082019050612cbb6000830184612c97565b92915050565b612cca81612a0e565b82525050565b6000602082019050612ce56000830184612cc1565b92915050565b60006bffffffffffffffffffffffff82169050919050565b612d0c81612ceb565b8114612d1757600080fd5b50565b600081359050612d2981612d03565b92915050565b600060208284031215612d4557612d4461293b565b5b6000612d5384828501612d1a565b91505092915050565b600080600060608486031215612d7557612d7461293b565b5b6000612d8386828701612a37565b9350506020612d9486828701612961565b9250506040612da586828701612961565b9150509250925092565b60008060408385031215612dc657612dc561293b565b5b6000612dd485828601612a37565b9250506020612de585828601612961565b9150509250929050565b600060208284031215612e0557612e0461293b565b5b6000612e1384828501612961565b91505092915050565b612e2581612b19565b82525050565b600061012082019050612e41600083018c612c97565b612e4e602083018b612cc1565b612e5b604083018a612cc1565b612e686060830189612cc1565b612e756080830188612c97565b612e8260a0830187612e1c565b612e8f60c0830186612c97565b612e9c60e0830185612c97565b612eaa610100830184612c97565b9a9950505050505050505050565b612ec181612ceb565b82525050565b6000602082019050612edc6000830184612eb8565b92915050565b600082825260208201905092915050565b7f4e6f20616374697665206469737075746520666f722074686973206974656d00600082015250565b6000612f29601f83612ee2565b9150612f3482612ef3565b602082019050919050565b60006020820190508181036000830152612f5881612f1c565b9050919050565b6000606082019050612f746000830186612cc1565b612f816020830185612cc1565b612f8e6040830184612c97565b949350505050565b7f4e487b7100000000000000000000000000000000000000000000000000000000600052601160045260246000fd5b6000612fd082612940565b91507fffffffffffffffffffffffffffffffffffffffffffffffffffffffffffffffff82141561300357613002612f96565b5b600182019050919050565b7f4e487b7100000000000000000000000000000000000000000000000000000000600052604160045260246000fd5b7f4e487b7100000000000000000000000000000000000000000000000000000000600052603260045260246000fd5b7f4665652070657263656e746167652063616e6e6f742065786365656420313025600082015250565b60006130a2602083612ee2565b91506130ad8261306c565b602082019050919050565b600060208201905081810360008301526130d181613095565b9050919050565b7f5072696365206d7573742062652067726561746572207468616e203000000000600082015250565b600061310e601c83612ee2565b9150613119826130d8565b602082019050919050565b6000602082019050818103600083015261313d81613101565b9050919050565b60008151905061315381612a20565b92915050565b60006020828403121561316f5761316e61293b565b5b600061317d84828501613144565b91505092915050565b7f4e6f7420746865206f776e6572206f662074686973204e465400000000000000600082015250565b60006131bc601983612ee2565b91506131c782613186565b602082019050919050565b600060208201905081810360008301526131eb816131af565b9050919050565b60006040820190506132076000830185612cc1565b6132146020830184612cc1565b9392505050565b60008151905061322a81612982565b92915050565b6000602082840312156132465761324561293b565b5b60006132548482850161321b565b91505092915050565b7f4d61726b6574706c616365206973206e6f7420617070726f76656420746f207460008201527f72616e736665722074686973204e465400000000000000000000000000000000602082015250565b60006132b9603083612ee2565b91506132c48261325d565b604082019050919050565b600060208201905081810360008301526132e8816132ac565b9050919050565b60006040820190506133046000830185612cc1565b6133116020830184612c97565b9392505050565b600060408201905061332d6000830185612c97565b61333a6020830184612cc1565b9392505050565b7f4974656d206973206e6f74206163746976650000000000000000000000000000600082015250565b6000613377601283612ee2565b915061338282613341565b602082019050919050565b600060208201905081810360008301526133a68161336a565b9050919050565b7f4f6e6c792073656c6c65722063616e2063616e63656c207468652073616c6500600082015250565b60006133e3601f83612ee2565b91506133ee826133ad565b602082019050919050565b60006020820190508181036000830152613412816133d6565b9050919050565b7f4974656d206d75737420626520636f6d706c6574656420746f2073746172742060008201527f6469737075746500000000000000000000000000000000000000000000000000602082015250565b6000613475602783612ee2565b915061348082613419565b604082019050919050565b600060208201905081810360008301526134a481613468565b9050919050565b7f4f6e6c792062757965722063616e207374617274206120646973707574650000600082015250565b60006134e1601e83612ee2565b91506134ec826134ab565b602082019050919050565b60006020820190508181036000830152613510816134d4565b9050919050565b600061352282612940565b915061352d83612940565b9250827fffffffffffffffffffffffffffffffffffffffffffffffffffffffffffffffff0382111561356257613561612f96565b5b828201905092915050565b7f4469737075746520706572696f64206861732065787069726564000000000000600082015250565b60006135a3601a83612ee2565b91506135ae8261356d565b602082019050919050565b600060208201905081810360008301526135d281613596565b9050919050565b7f4974656d206973206e6f7420666f722073616c65000000000000000000000000600082015250565b600061360f601483612ee2565b915061361a826135d9565b602082019050919050565b6000602082019050818103600083015261363e81613602565b9050919050565b7f496e73756666696369656e742066756e64732073656e74000000000000000000600082015250565b600061367b601783612ee2565b915061368682613645565b602082019050919050565b600060208201905081810360008301526136aa8161366e565b9050919050565b60006136bc82612940565b91506136c783612940565b9250817fffffffffffffffffffffffffffffffffffffffffffffffffffffffffffffffff0483118215151615613700576136ff612f96565b5b828202905092915050565b7f4e487b7100000000000000000000000000000000000000000000000000000000600052601260045260246000fd5b600061374582612940565b915061375083612940565b9250826137605761375f61370b565b5b828204905092915050565b60006040820190506137806000830185612c97565b61378d6020830184612c97565b9392505050565b6000815190506137a38161294a565b92915050565b600080604083850312156137c0576137bf61293b565b5b60006137ce85828601613144565b92505060206137df85828601613794565b9150509250929050565b60006137f482612940565b91506137ff83612940565b92508282101561381257613811612f96565b5b828203905092915050565b7f4f776e61626c653a206e6577206f776e657220697320746865207a65726f206160008201527f6464726573730000000000000000000000000000000000000000000000000000602082015250565b6000613879602683612ee2565b91506138848261381d565b604082019050919050565b600060208201905081810360008301526138a88161386c565b9050919050565b7f5265656e7472616e637947756172643a207265656e7472616e742063616c6c00600082015250565b60006138e5601f83612ee2565b91506138f0826138af565b602082019050919050565b60006020820190508181036000830152613914816138d8565b9050919050565b7f4f776e61626c653a2063616c6c6572206973206e6f7420746865206f776e6572600082015250565b6000613951602083612ee2565b915061395c8261391b565b602082019050919050565b6000602082019050818103600083015261398081613944565b905091905056fea2646970667358221220caef5b8e415a630aca923bd204f9d77872da0707d005fff95e95388c1f3b97f764736f6c634300080a0033",
  "linkReferences": {},
  "deployedLinkReferences": {}
}