{
  "_format": "hh-sol-artifact-1",
  "contractName": "RoyaltyManager",
  "sourceName": "contracts/RoyaltyManager.sol",
  "abi": [
    {
      "anonymous": false,
      "inputs": [
        {
          "indexed": true,
          "internalType": "address",
          "name": "nftContract",
          "type": "address"
        },
        {
          "indexed": false,
          "internalType": "address",
          "name": "recipient",
          "type": "address"
        },
        {
          "indexed": false,
          "internalType": "uint96",
          "name": "royaltyRate",
          "type": "uint96"
        }
      ],
      "name": "ContractRoyaltySet",
      "type": "event"
    },
    {
      "anonymous": false,
      "inputs": [
        {
          "indexed": true,
          "internalType": "address",
          "name": "nftContract",
          "type": "address"
        },
        {
          "indexed": false,
          "internalType": "bool",
          "name": "allowed",
          "type": "bool"
        }
      ],
      "name": "NFTContractAllowed",
      "type": "event"
    },
    {
      "anonymous": false,
      "inputs": [
        {
          "indexed": true,
          "internalType": "address",
          "name": "previousOwner",
          "type": "address"
        },
        {
          "indexed": true,
          "internalType": "address",
          "name": "newOwner",
          "type": "address"
        }
      ],
      "name": "OwnershipTransferred",
      "type": "event"
    },
    {
      "anonymous": false,
      "inputs": [
        {
          "indexed": true,
          "internalType": "address",
          "name": "nftContract",
          "type": "address"
        },
        {
          "indexed": true,
          "internalType": "uint256",
          "name": "tokenId",
          "type": "uint256"
        },
        {
          "indexed": false,
          "internalType": "address",
          "name": "recipient",
          "type": "address"
        },
        {
          "indexed": false,
          "internalType": "uint256",
          "name": "amount",
          "type": "uint256"
        }
      ],
      "name": "RoyaltyPaid",
      "type": "event"
    },
    {
      "anonymous": false,
      "inputs": [
        {
          "indexed": true,
          "internalType": "address",
          "name": "nftContract",
          "type": "address"
        },
        {
          "indexed": true,
          "internalType": "uint256",
          "name": "tokenId",
          "type": "uint256"
        },
        {
          "indexed": false,
          "internalType": "address",
          "name": "recipient",
          "type": "address"
        },
        {
          "indexed": false,
          "internalType": "uint96",
          "name": "royaltyRate",
          "type": "uint96"
        }
      ],
      "name": "RoyaltySet",
      "type": "event"
    },
    {
      "inputs": [
        {
          "internalType": "address",
          "name": "nftContract",
          "type": "address"
        },
        {
          "internalType": "bool",
          "name": "allowed",
          "type": "bool"
        }
      ],
      "name": "allowNFTContract",
      "outputs": [],
      "stateMutability": "nonpayable",
      "type": "function"
    },
    {
      "inputs": [
        {
          "internalType": "address",
          "name": "",
          "type": "address"
        }
      ],
      "name": "allowedNFTContracts",
      "outputs": [
        {
          "internalType": "bool",
          "name": "",
          "type": "bool"
        }
      ],
      "stateMutability": "view",
      "type": "function"
    },
    {
      "inputs": [],
      "name": "emergencyWithdraw",
      "outputs": [],
      "stateMutability": "nonpayable",
      "type": "function"
    },
    {
      "inputs": [
        {
          "internalType": "address",
          "name": "nftContract",
          "type": "address"
        },
        {
          "internalType": "uint256",
          "name": "tokenId",
          "type": "uint256"
        },
        {
          "internalType": "uint256",
          "name": "salePrice",
          "type": "uint256"
        }
      ],
      "name": "getRoyaltyInfo",
      "outputs": [
        {
          "internalType": "address",
          "name": "recipient",
          "type": "address"
        },
        {
          "internalType": "uint256",
          "name": "royaltyAmount",
          "type": "uint256"
        }
      ],
      "stateMutability": "view",
      "type": "function"
    },
    {
      "inputs": [],
      "name": "owner",
      "outputs": [
        {
          "internalType": "address",
          "name": "",
          "type": "address"
        }
      ],
      "stateMutability": "view",
      "type": "function"
    },
    {
      "inputs": [
        {
          "internalType": "address",
          "name": "nftContract",
          "type": "address"
        },
        {
          "internalType": "uint256",
          "name": "tokenId",
          "type": "uint256"
        },
        {
          "internalType": "uint256",
          "name": "salePrice",
          "type": "uint256"
        }
      ],
      "name": "payRoyalty",
      "outputs": [
        {
          "internalType": "bool",
          "name": "success",
          "type": "bool"
        }
      ],
      "stateMutability": "payable",
      "type": "function"
    },
    {
      "inputs": [],
      "name": "renounceOwnership",
      "outputs": [],
      "stateMutability": "nonpayable",
      "type": "function"
    },
    {
      "inputs": [
        {
          "internalType": "address",
          "name": "nftContract",
          "type": "address"
        },
        {
          "internalType": "address",
          "name": "recipient",
          "type": "address"
        },
        {
          "internalType": "uint96",
          "name": "royaltyRate",
          "type": "uint96"
        }
      ],
      "name": "setContractRoyalty",
      "outputs": [],
      "stateMutability": "nonpayable",
      "type": "function"
    },
    {
      "inputs": [
        {
          "internalType": "address",
          "name": "nftContract",
          "type": "address"
        },
        {
          "internalType": "uint256",
          "name": "tokenId",
          "type": "uint256"
        },
        {
          "internalType": "address",
          "name": "recipient",
          "type": "address"
        },
        {
          "internalType": "uint96",
          "name": "royaltyRate",
          "type": "uint96"
        }
      ],
      "name": "setTokenRoyalty",
      "outputs": [],
      "stateMutability": "nonpayable",
      "type": "function"
    },
    {
      "inputs": [
        {
          "internalType": "address",
          "name": "newOwner",
          "type": "address"
        }
      ],
      "name": "transferOwnership",
      "outputs": [],
      "stateMutability": "nonpayable",
      "type": "function"
    },
    {
      "stateMutability": "payable",
      "type": "receive"
    }
  ],
  "bytecode": "0x608060405234801561001057600080fd5b5061002d61002261003960201b60201c565b61004160201b60201c565b60018081905550610105565b600033905090565b60008060009054906101000a900473ffffffffffffffffffffffffffffffffffffffff169050816000806101000a81548173ffffffffffffffffffffffffffffffffffffffff021916908373ffffffffffffffffffffffffffffffffffffffff1602179055508173ffffffffffffffffffffffffffffffffffffffff168173ffffffffffffffffffffffffffffffffffffffff167f8be0079c531659141344cd1fd0a4f28419497f9722a3daafe3b4186f6b6457e060405160405180910390a35050565b6117ac806101146000396000f3fe6080604052600436106100955760003560e01c80638da5cb5b116100595780638da5cb5b14610178578063c0f6ae97146101a3578063db2e21bc146101e0578063f2fde38b146101f7578063fbdc39d4146102205761009c565b80631731d189146100a157806336de9742146100ca5780635382f59914610108578063626b416e14610138578063715018a6146101615761009c565b3661009c57005b600080fd5b3480156100ad57600080fd5b506100c860048036038101906100c3919061105c565b610249565b005b3480156100d657600080fd5b506100f160048036038101906100ec91906110e5565b6104ee565b6040516100ff929190611156565b60405180910390f35b610122600480360381019061011d91906110e5565b6107bd565b60405161012f919061119a565b60405180910390f35b34801561014457600080fd5b5061015f600480360381019061015a91906111b5565b610970565b005b34801561016d57600080fd5b50610176610c28565b005b34801561018457600080fd5b5061018d610c3c565b60405161019a919061121c565b60405180910390f35b3480156101af57600080fd5b506101ca60048036038101906101c59190611237565b610c65565b6040516101d7919061119a565b60405180910390f35b3480156101ec57600080fd5b506101f5610c85565b005b34801561020357600080fd5b5061021e60048036038101906102199190611237565b610cdd565b005b34801561022c57600080fd5b5061024760048036038101906102429190611290565b610d61565b005b610251610e12565b600460008473ffffffffffffffffffffffffffffffffffffffff1673ffffffffffffffffffffffffffffffffffffffff16815260200190815260200160002060009054906101000a900460ff166102dd576040517f08c379a00000000000000000000000000000000000000000000000000000000081526004016102d49061132d565b60405180910390fd5b6103e8816bffffffffffffffffffffffff161115610330576040517f08c379a000000000000000000000000000000000000000000000000000000000815260040161032790611399565b60405180910390fd5b600073ffffffffffffffffffffffffffffffffffffffff168273ffffffffffffffffffffffffffffffffffffffff1614156103a0576040517f08c379a000000000000000000000000000000000000000000000000000000000815260040161039790611405565b60405180910390fd5b60405180604001604052808373ffffffffffffffffffffffffffffffffffffffff168152602001826bffffffffffffffffffffffff16815250600360008573ffffffffffffffffffffffffffffffffffffffff1673ffffffffffffffffffffffffffffffffffffffff16815260200190815260200160002060008201518160000160006101000a81548173ffffffffffffffffffffffffffffffffffffffff021916908373ffffffffffffffffffffffffffffffffffffffff16021790555060208201518160000160146101000a8154816bffffffffffffffffffffffff02191690836bffffffffffffffffffffffff1602179055509050508273ffffffffffffffffffffffffffffffffffffffff167f30508c4e36498c995de94a60da5606d7aa6a6a7b268241660bcc3ad2bc78362183836040516104e1929190611434565b60405180910390a2505050565b6000806000600260008773ffffffffffffffffffffffffffffffffffffffff1673ffffffffffffffffffffffffffffffffffffffff16815260200190815260200160002060008681526020019081526020016000206040518060400160405290816000820160009054906101000a900473ffffffffffffffffffffffffffffffffffffffff1673ffffffffffffffffffffffffffffffffffffffff1673ffffffffffffffffffffffffffffffffffffffff1681526020016000820160149054906101000a90046bffffffffffffffffffffffff166bffffffffffffffffffffffff166bffffffffffffffffffffffff16815250509050600073ffffffffffffffffffffffffffffffffffffffff16816000015173ffffffffffffffffffffffffffffffffffffffff16146106565761271081602001516bffffffffffffffffffffffff168561063d919061148c565b6106479190611515565b915080600001519250506107b5565b6000600360008873ffffffffffffffffffffffffffffffffffffffff1673ffffffffffffffffffffffffffffffffffffffff1681526020019081526020016000206040518060400160405290816000820160009054906101000a900473ffffffffffffffffffffffffffffffffffffffff1673ffffffffffffffffffffffffffffffffffffffff1673ffffffffffffffffffffffffffffffffffffffff1681526020016000820160149054906101000a90046bffffffffffffffffffffffff166bffffffffffffffffffffffff166bffffffffffffffffffffffff16815250509050600073ffffffffffffffffffffffffffffffffffffffff16816000015173ffffffffffffffffffffffffffffffffffffffff16146107ab5761271081602001516bffffffffffffffffffffffff1686610791919061148c565b61079b9190611515565b92508060000151935050506107b5565b6000809350935050505b935093915050565b60006107c7610e90565b6000806107d58686866104ee565b91509150600073ffffffffffffffffffffffffffffffffffffffff168273ffffffffffffffffffffffffffffffffffffffff1614806108145750600081145b1561082457600092505050610961565b80341015610867576040517f08c379a000000000000000000000000000000000000000000000000000000000815260040161085e906115b8565b60405180910390fd5b8173ffffffffffffffffffffffffffffffffffffffff166108fc829081150290604051600060405180830381858888f193505050501580156108ad573d6000803e3d6000fd5b5080341115610909573373ffffffffffffffffffffffffffffffffffffffff166108fc82346108dc91906115d8565b9081150290604051600060405180830381858888f19350505050158015610907573d6000803e3d6000fd5b505b848673ffffffffffffffffffffffffffffffffffffffff167fe3af12256b9679feef6d76d73f3373020e13baa6b7c5bfba4d28c4b96318c92a8484604051610952929190611156565b60405180910390a36001925050505b610969610ee0565b9392505050565b610978610e12565b600460008573ffffffffffffffffffffffffffffffffffffffff1673ffffffffffffffffffffffffffffffffffffffff16815260200190815260200160002060009054906101000a900460ff16610a04576040517f08c379a00000000000000000000000000000000000000000000000000000000081526004016109fb9061132d565b60405180910390fd5b6103e8816bffffffffffffffffffffffff161115610a57576040517f08c379a0000000000000000000000000000000000000000000000000000000008152600401610a4e90611399565b60405180910390fd5b600073ffffffffffffffffffffffffffffffffffffffff168273ffffffffffffffffffffffffffffffffffffffff161415610ac7576040517f08c379a0000000000000000000000000000000000000000000000000000000008152600401610abe90611405565b60405180910390fd5b60405180604001604052808373ffffffffffffffffffffffffffffffffffffffff168152602001826bffffffffffffffffffffffff16815250600260008673ffffffffffffffffffffffffffffffffffffffff1673ffffffffffffffffffffffffffffffffffffffff168152602001908152602001600020600085815260200190815260200160002060008201518160000160006101000a81548173ffffffffffffffffffffffffffffffffffffffff021916908373ffffffffffffffffffffffffffffffffffffffff16021790555060208201518160000160146101000a8154816bffffffffffffffffffffffff02191690836bffffffffffffffffffffffff160217905550905050828473ffffffffffffffffffffffffffffffffffffffff167fb99d8eeff1e9bb56821a5e841b152bb119d760f07fe30c53cf37b36931587d6f8484604051610c1a929190611434565b60405180910390a350505050565b610c30610e12565b610c3a6000610ee9565b565b60008060009054906101000a900473ffffffffffffffffffffffffffffffffffffffff16905090565b60046020528060005260406000206000915054906101000a900460ff1681565b610c8d610e12565b610c95610c3c565b73ffffffffffffffffffffffffffffffffffffffff166108fc479081150290604051600060405180830381858888f19350505050158015610cda573d6000803e3d6000fd5b50565b610ce5610e12565b600073ffffffffffffffffffffffffffffffffffffffff168173ffffffffffffffffffffffffffffffffffffffff161415610d55576040517f08c379a0000000000000000000000000000000000000000000000000000000008152600401610d4c9061167e565b60405180910390fd5b610d5e81610ee9565b50565b610d69610e12565b80600460008473ffffffffffffffffffffffffffffffffffffffff1673ffffffffffffffffffffffffffffffffffffffff16815260200190815260200160002060006101000a81548160ff0219169083151502179055508173ffffffffffffffffffffffffffffffffffffffff167f60474e4131e50b3beba93ab3e840ebd6cc95fb4a782b35e4f442139cd26efa4a82604051610e06919061119a565b60405180910390a25050565b610e1a610fad565b73ffffffffffffffffffffffffffffffffffffffff16610e38610c3c565b73ffffffffffffffffffffffffffffffffffffffff1614610e8e576040517f08c379a0000000000000000000000000000000000000000000000000000000008152600401610e85906116ea565b60405180910390fd5b565b60026001541415610ed6576040517f08c379a0000000000000000000000000000000000000000000000000000000008152600401610ecd90611756565b60405180910390fd5b6002600181905550565b60018081905550565b60008060009054906101000a900473ffffffffffffffffffffffffffffffffffffffff169050816000806101000a81548173ffffffffffffffffffffffffffffffffffffffff021916908373ffffffffffffffffffffffffffffffffffffffff1602179055508173ffffffffffffffffffffffffffffffffffffffff168173ffffffffffffffffffffffffffffffffffffffff167f8be0079c531659141344cd1fd0a4f28419497f9722a3daafe3b4186f6b6457e060405160405180910390a35050565b600033905090565b600080fd5b600073ffffffffffffffffffffffffffffffffffffffff82169050919050565b6000610fe582610fba565b9050919050565b610ff581610fda565b811461100057600080fd5b50565b60008135905061101281610fec565b92915050565b60006bffffffffffffffffffffffff82169050919050565b61103981611018565b811461104457600080fd5b50565b60008135905061105681611030565b92915050565b60008060006060848603121561107557611074610fb5565b5b600061108386828701611003565b935050602061109486828701611003565b92505060406110a586828701611047565b9150509250925092565b6000819050919050565b6110c2816110af565b81146110cd57600080fd5b50565b6000813590506110df816110b9565b92915050565b6000806000606084860312156110fe576110fd610fb5565b5b600061110c86828701611003565b935050602061111d868287016110d0565b925050604061112e868287016110d0565b9150509250925092565b61114181610fda565b82525050565b611150816110af565b82525050565b600060408201905061116b6000830185611138565b6111786020830184611147565b9392505050565b60008115159050919050565b6111948161117f565b82525050565b60006020820190506111af600083018461118b565b92915050565b600080600080608085870312156111cf576111ce610fb5565b5b60006111dd87828801611003565b94505060206111ee878288016110d0565b93505060406111ff87828801611003565b925050606061121087828801611047565b91505092959194509250565b60006020820190506112316000830184611138565b92915050565b60006020828403121561124d5761124c610fb5565b5b600061125b84828501611003565b91505092915050565b61126d8161117f565b811461127857600080fd5b50565b60008135905061128a81611264565b92915050565b600080604083850312156112a7576112a6610fb5565b5b60006112b585828601611003565b92505060206112c68582860161127b565b9150509250929050565b600082825260208201905092915050565b7f4e465420636f6e7472616374206e6f7420616c6c6f7765640000000000000000600082015250565b60006113176018836112d0565b9150611322826112e1565b602082019050919050565b600060208201905081810360008301526113468161130a565b9050919050565b7f526f79616c747920726174652063616e6e6f7420657863656564203130250000600082015250565b6000611383601e836112d0565b915061138e8261134d565b602082019050919050565b600060208201905081810360008301526113b281611376565b9050919050565b7f526563697069656e7420616464726573732063616e6e6f74206265207a65726f600082015250565b60006113ef6020836112d0565b91506113fa826113b9565b602082019050919050565b6000602082019050818103600083015261141e816113e2565b9050919050565b61142e81611018565b82525050565b60006040820190506114496000830185611138565b6114566020830184611425565b9392505050565b7f4e487b7100000000000000000000000000000000000000000000000000000000600052601160045260246000fd5b6000611497826110af565b91506114a2836110af565b9250817fffffffffffffffffffffffffffffffffffffffffffffffffffffffffffffffff04831182151516156114db576114da61145d565b5b828202905092915050565b7f4e487b7100000000000000000000000000000000000000000000000000000000600052601260045260246000fd5b6000611520826110af565b915061152b836110af565b92508261153b5761153a6114e6565b5b828204905092915050565b7f496e73756666696369656e742066756e64732073656e7420666f7220726f796160008201527f6c74790000000000000000000000000000000000000000000000000000000000602082015250565b60006115a26023836112d0565b91506115ad82611546565b604082019050919050565b600060208201905081810360008301526115d181611595565b9050919050565b60006115e3826110af565b91506115ee836110af565b9250828210156116015761160061145d565b5b828203905092915050565b7f4f776e61626c653a206e6577206f776e657220697320746865207a65726f206160008201527f6464726573730000000000000000000000000000000000000000000000000000602082015250565b60006116686026836112d0565b91506116738261160c565b604082019050919050565b600060208201905081810360008301526116978161165b565b9050919050565b7f4f776e61626c653a2063616c6c6572206973206e6f7420746865206f776e6572600082015250565b60006116d46020836112d0565b91506116df8261169e565b602082019050919050565b60006020820190508181036000830152611703816116c7565b9050919050565b7f5265656e7472616e637947756172643a207265656e7472616e742063616c6c00600082015250565b6000611740601f836112d0565b915061174b8261170a565b602082019050919050565b6000602082019050818103600083015261176f81611733565b905091905056fea26469706673582212201d81b48bd4570c15a178b304b31a21ba5b341cee60d08ac0082a812cf4aef7d964736f6c634300080a0033",
  "linkReferences": {},
  "deployedLinkReferences": {}
}